{
  "_format": "hh-sol-artifact-1",
  "contractName": "CipherBatchMatcher",
  "sourceName": "contracts/CipherBatchMatcher.sol",
  "abi": [
    {
      "inputs": [
        {
          "internalType": "address",
          "name": "_cipherCV",
          "type": "address"
        }
      ],
      "stateMutability": "nonpayable",
      "type": "constructor"
    },
    {
      "anonymous": false,
      "inputs": [
        {
          "indexed": true,
          "internalType": "uint256",
          "name": "batchId",
          "type": "uint256"
        },
        {
          "indexed": false,
          "internalType": "uint256",
          "name": "matchesFound",
          "type": "uint256"
        },
        {
          "indexed": false,
          "internalType": "uint256",
          "name": "totalPairs",
          "type": "uint256"
        }
      ],
      "name": "BatchCompleted",
      "type": "event"
    },
    {
      "anonymous": false,
      "inputs": [
        {
          "indexed": true,
          "internalType": "uint256",
          "name": "batchId",
          "type": "uint256"
        },
        {
          "indexed": false,
          "internalType": "uint256",
          "name": "pairCount",
          "type": "uint256"
        }
      ],
      "name": "BatchStarted",
      "type": "event"
    },
    {
      "anonymous": false,
      "inputs": [
        {
          "indexed": true,
          "internalType": "uint256",
          "name": "batchId",
          "type": "uint256"
        },
        {
          "indexed": false,
          "internalType": "uint256",
          "name": "pairIndex",
          "type": "uint256"
        },
        {
          "indexed": false,
          "internalType": "address",
          "name": "candidate",
          "type": "address"
        },
        {
          "indexed": false,
          "internalType": "address",
          "name": "employer",
          "type": "address"
        },
        {
          "indexed": false,
          "internalType": "bool",
          "name": "compatible",
          "type": "bool"
        }
      ],
      "name": "PairProcessed",
      "type": "event"
    },
    {
      "inputs": [],
      "name": "MAX_BATCH_SIZE",
      "outputs": [
        {
          "internalType": "uint256",
          "name": "",
          "type": "uint256"
        }
      ],
      "stateMutability": "view",
      "type": "function"
    },
    {
      "inputs": [],
      "name": "batchCount",
      "outputs": [
        {
          "internalType": "uint256",
          "name": "",
          "type": "uint256"
        }
      ],
      "stateMutability": "view",
      "type": "function"
    },
    {
      "inputs": [
        {
          "internalType": "uint256",
          "name": "",
          "type": "uint256"
        },
        {
          "internalType": "uint256",
          "name": "",
          "type": "uint256"
        }
      ],
      "name": "batchResults",
      "outputs": [
        {
          "internalType": "address",
          "name": "candidate",
          "type": "address"
        },
        {
          "internalType": "address",
          "name": "employer",
          "type": "address"
        },
        {
          "internalType": "bool",
          "name": "computed",
          "type": "bool"
        },
        {
          "internalType": "bool",
          "name": "compatible",
          "type": "bool"
        },
        {
          "internalType": "uint256",
          "name": "computedAt",
          "type": "uint256"
        }
      ],
      "stateMutability": "view",
      "type": "function"
    },
    {
      "inputs": [
        {
          "internalType": "uint256",
          "name": "",
          "type": "uint256"
        }
      ],
      "name": "batches",
      "outputs": [
        {
          "internalType": "uint256",
          "name": "id",
          "type": "uint256"
        },
        {
          "internalType": "uint256",
          "name": "pairsProcessed",
          "type": "uint256"
        },
        {
          "internalType": "uint256",
          "name": "matchesFound",
          "type": "uint256"
        },
        {
          "internalType": "bool",
          "name": "complete",
          "type": "bool"
        },
        {
          "internalType": "uint256",
          "name": "startedAt",
          "type": "uint256"
        },
        {
          "internalType": "uint256",
          "name": "completedAt",
          "type": "uint256"
        }
      ],
      "stateMutability": "view",
      "type": "function"
    },
    {
      "inputs": [],
      "name": "cipherCV",
      "outputs": [
        {
          "internalType": "contract CipherCV",
          "name": "",
          "type": "address"
        }
      ],
      "stateMutability": "view",
      "type": "function"
    },
    {
      "inputs": [
        {
          "internalType": "uint256",
          "name": "batchId",
          "type": "uint256"
        }
      ],
      "name": "getBatchStatus",
      "outputs": [
        {
          "internalType": "uint256",
          "name": "pairsProcessed",
          "type": "uint256"
        },
        {
          "internalType": "uint256",
          "name": "matchesFound",
          "type": "uint256"
        },
        {
          "internalType": "uint256",
          "name": "totalPairs",
          "type": "uint256"
        },
        {
          "internalType": "bool",
          "name": "complete",
          "type": "bool"
        },
        {
          "internalType": "uint256",
          "name": "startedAt",
          "type": "uint256"
        }
      ],
      "stateMutability": "view",
      "type": "function"
    },
    {
      "inputs": [],
      "name": "getGlobalStats",
      "outputs": [
        {
          "internalType": "uint256",
          "name": "totalBatches",
          "type": "uint256"
        },
        {
          "internalType": "uint256",
          "name": "totalMatches",
          "type": "uint256"
        },
        {
          "internalType": "uint256",
          "name": "totalPairs",
          "type": "uint256"
        }
      ],
      "stateMutability": "view",
      "type": "function"
    },
    {
      "inputs": [
        {
          "internalType": "uint256",
          "name": "batchId",
          "type": "uint256"
        },
        {
          "internalType": "uint256",
          "name": "pairIndex",
          "type": "uint256"
        }
      ],
      "name": "getPairResult",
      "outputs": [
        {
          "internalType": "address",
          "name": "candidate",
          "type": "address"
        },
        {
          "internalType": "address",
          "name": "employer",
          "type": "address"
        },
        {
          "internalType": "bool",
          "name": "computed",
          "type": "bool"
        },
        {
          "internalType": "bool",
          "name": "compatible",
          "type": "bool"
        }
      ],
      "stateMutability": "view",
      "type": "function"
    },
    {
      "inputs": [
        {
          "internalType": "uint256",
          "name": "batchId",
          "type": "uint256"
        },
        {
          "internalType": "uint256",
          "name": "startIndex",
          "type": "uint256"
        },
        {
          "internalType": "uint256",
          "name": "endIndex",
          "type": "uint256"
        }
      ],
      "name": "processBatch",
      "outputs": [],
      "stateMutability": "nonpayable",
      "type": "function"
    },
    {
      "inputs": [
        {
          "internalType": "address[]",
          "name": "candidates",
          "type": "address[]"
        },
        {
          "internalType": "address[]",
          "name": "employers",
          "type": "address[]"
        }
      ],
      "name": "startBatch",
      "outputs": [
        {
          "internalType": "uint256",
          "name": "batchId",
          "type": "uint256"
        }
      ],
      "stateMutability": "nonpayable",
      "type": "function"
    },
    {
      "inputs": [
        {
          "internalType": "address[]",
          "name": "candidates",
          "type": "address[]"
        },
        {
          "internalType": "address[]",
          "name": "employers",
          "type": "address[]"
        }
      ],
      "name": "startTournament",
      "outputs": [
        {
          "internalType": "uint256",
          "name": "batchId",
          "type": "uint256"
        }
      ],
      "stateMutability": "nonpayable",
      "type": "function"
    },
    {
      "inputs": [],
      "name": "totalMatchesFound",
      "outputs": [
        {
          "internalType": "uint256",
          "name": "",
          "type": "uint256"
        }
      ],
      "stateMutability": "view",
      "type": "function"
    },
    {
      "inputs": [],
      "name": "totalPairsProcessed",
      "outputs": [
        {
          "internalType": "uint256",
          "name": "",
          "type": "uint256"
        }
      ],
      "stateMutability": "view",
      "type": "function"
    }
  ],
  "bytecode": "0x6080604052348015600e575f5ffd5b50604051611178380380611178833981016040819052602b91604e565b5f80546001600160a01b0319166001600160a01b03929092169190911790556079565b5f60208284031215605d575f5ffd5b81516001600160a01b03811681146072575f5ffd5b9392505050565b6110f2806100865f395ff3fe608060405234801561000f575f5ffd5b50600436106100cb575f3560e01c8063807783b111610088578063b32c4d8d11610063578063b32c4d8d14610266578063cfdbf254146102db578063f3ae75e5146102e3578063f7529d9014610378575f5ffd5b8063807783b114610220578063a32f008a14610233578063a48a68a01461023c575f5ffd5b806306f13056146100cf5780631ca75d2e146100eb5780632d1bbc8e146100fe57806339134c791461016b5780636b4169c3146101f357806370bc65ae14610217575b5f5ffd5b6100d860015481565b6040519081526020015b60405180910390f35b6100d86100f9366004610e8f565b61038d565b61014161010c366004610efb565b5f908152600260205260409020600381015460048201546001830154600584015460069094015492949193909260ff90911691565b6040805195865260208601949094529284019190915215156060830152608082015260a0016100e2565b6101c0610179366004610f12565b5f918252600360209081526040808420928452919052902080546001909101546001600160a01b03918216929181169160ff600160a01b8304811692600160a81b90041690565b604080516001600160a01b03958616815294909316602085015290151591830191909152151560608201526080016100e2565b600154600454600554604080519384526020840192909252908201526060016100e2565b6100d860055481565b6100d861022e366004610e8f565b61066c565b6100d860045481565b5f5461024e906001600160a01b031681565b6040516001600160a01b0390911681526020016100e2565b6102ac610274366004610efb565b60026020525f908152604090208054600382015460048301546005840154600685015460079095015493949293919260ff9091169186565b6040805196875260208701959095529385019290925215156060840152608083015260a082015260c0016100e2565b6100d8603281565b61033f6102f1366004610f12565b600360209081525f92835260408084209091529082529020805460018201546002909201546001600160a01b03918216929182169160ff600160a01b8204811692600160a81b909204169085565b604080516001600160a01b039687168152959094166020860152911515928401929092529015156060830152608082015260a0016100e2565b61038b610386366004610f32565b6108a7565b005b5f806103998386610f6f565b905060328111156103e85760405162461bcd60e51b8152602060048201526014602482015273546f75726e616d656e7420746f6f206c6172676560601b60448201526064015b60405180910390fd5b5f8167ffffffffffffffff81111561040257610402610f8c565b60405190808252806020026020018201604052801561042b578160200160208202803683370190505b5090505f8267ffffffffffffffff81111561044857610448610f8c565b604051908082528060200260200182016040528015610471578160200160208202803683370190505b5090505f805b88811015610551575f5b87811015610548578a8a8381811061049b5761049b610fa0565b90506020020160208101906104b09190610fb4565b8584815181106104c2576104c2610fa0565b60200260200101906001600160a01b031690816001600160a01b0316815250508888828181106104f4576104f4610fa0565b90506020020160208101906105099190610fb4565b84848151811061051b5761051b610fa0565b6001600160a01b03909216602092830291909101909101528261053d81610fe1565b935050600101610481565b50600101610477565b5060018054905f61056183610fe1565b90915550604080516101008101825282815260208082018781528284018790525f606084018190526080840181905260a084018190524260c085015260e084018190528581526002835293909320825181559251805194995091936105cc9260018501920190610dd0565b50604082015180516105e8916002840191602090910190610dd0565b50606082015160038201556080820151600482015560a082015160058201805460ff191691151591909117905560c0820151600682015560e09091015160079091015560405184815285907fc68f932a0137144dbeee254411afb99983c1a13d27608dce10ac71737c397d799060200160405180910390a250505050949350505050565b5f8382146106ae5760405162461bcd60e51b815260206004820152600f60248201526e098cadccee8d040dad2e6dac2e8c6d608b1b60448201526064016103df565b60328411156106f15760405162461bcd60e51b815260206004820152600f60248201526e426174636820746f6f206c6172676560881b60448201526064016103df565b8361072c5760405162461bcd60e51b815260206004820152600b60248201526a08adae0e8f240c4c2e8c6d60ab1b60448201526064016103df565b60018054905f61073b83610fe1565b9190505590506040518061010001604052808281526020018686808060200260200160405190810160405280939291908181526020018383602002808284375f9201919091525050509082525060408051602086810282810182019093528682529283019290918791879182918501908490808284375f920182905250938552505050602080830182905260408084018390526060840183905242608085015260a09093018290528482526002815291902082518155828201518051919261080b92600185019290910190610dd0565b5060408201518051610827916002840191602090910190610dd0565b50606082015160038201556080820151600482015560a082015160058201805460ff191691151591909117905560c0820151600682015560e09091015160079091015560405184815281907fc68f932a0137144dbeee254411afb99983c1a13d27608dce10ac71737c397d799060200160405180910390a2949350505050565b5f838152600260205260409020600581015460ff16156109025760405162461bcd60e51b8152602060048201526016602482015275426174636820616c726561647920636f6d706c65746560501b60448201526064016103df565b60018101548211156109465760405162461bcd60e51b815260206004820152600d60248201526c4f7574206f6620626f756e647360981b60448201526064016103df565b600a6109528484610ff9565b11156109a05760405162461bcd60e51b815260206004820152601860248201527f50726f63657373206d617820313020617420612074696d65000000000000000060448201526064016103df565b825b82811015610c54575f8260010182815481106109c0576109c0610fa0565b5f9182526020822001546002850180546001600160a01b03909216935090849081106109ee576109ee610fa0565b5f9182526020822001546001600160a01b03169150610a0c83610ccd565b5090505f610a1983610d4f565b5090505f828015610a275750815b15610ac1575f5460405163236545ef60e01b81526001600160a01b03878116600483015286811660248301529091169063236545ef906044015f604051808303815f87803b158015610a77575f5ffd5b505af1925050508015610a88575060015b610a9357505f610ac1565b506004860180546001915f610aa783610fe1565b909155505060048054905f610abb83610fe1565b91905055505b6040518060a00160405280866001600160a01b03168152602001856001600160a01b0316815260200160011515815260200182151581526020014281525060035f8c81526020019081526020015f205f8881526020019081526020015f205f820151815f015f6101000a8154816001600160a01b0302191690836001600160a01b031602179055506020820151816001015f6101000a8154816001600160a01b0302191690836001600160a01b0316021790555060408201518160010160146101000a81548160ff02191690831515021790555060608201518160010160156101000a81548160ff02191690831515021790555060808201518160020155905050866003015f815480929190610bd690610fe1565b909155505060058054905f610bea83610fe1565b9091555050604080518781526001600160a01b038781166020830152861681830152821515606082015290518b917f22c7a029f91184dc825a4bc83814ade634df6ad322ba6e8c012c4b10d3050085919081900360800190a25050600190930192506109a2915050565b506001810154600382015410610cc75760058101805460ff1916600190811790915542600783015560048201549082015460405186927fcdf3a25ac86d8c6a422a8356f0fb7d6cc09b23caca39fd699cbc6038e558736492610cbe92918252602082015260400190565b60405180910390a25b50505050565b5f805460405163d678bded60e01b81526001600160a01b0384811660048301528392839283929091169063d678bded9060240160c060405180830381865afa158015610d1b573d5f5f3e3d5ffd5b505050506040513d601f19601f82011682018060405250810190610d3f9190611020565b909a909950975050505050505050565b5f80546040516353d1691560e11b81526001600160a01b0384811660048301528392839283929091169063a7a2d22a9060240160a060405180830381865afa158015610d9d573d5f5f3e3d5ffd5b505050506040513d601f19601f82011682018060405250810190610dc19190611074565b90999098509650505050505050565b828054828255905f5260205f20908101928215610e23579160200282015b82811115610e2357825182546001600160a01b0319166001600160a01b03909116178255602090920191600190910190610dee565b50610e2f929150610e33565b5090565b5b80821115610e2f575f8155600101610e34565b5f5f83601f840112610e57575f5ffd5b50813567ffffffffffffffff811115610e6e575f5ffd5b6020830191508360208260051b8501011115610e88575f5ffd5b9250929050565b5f5f5f5f60408587031215610ea2575f5ffd5b843567ffffffffffffffff811115610eb8575f5ffd5b610ec487828801610e47565b909550935050602085013567ffffffffffffffff811115610ee3575f5ffd5b610eef87828801610e47565b95989497509550505050565b5f60208284031215610f0b575f5ffd5b5035919050565b5f5f60408385031215610f23575f5ffd5b50508035926020909101359150565b5f5f5f60608486031215610f44575f5ffd5b505081359360208301359350604090920135919050565b634e487b7160e01b5f52601160045260245ffd5b8082028115828204841417610f8657610f86610f5b565b92915050565b634e487b7160e01b5f52604160045260245ffd5b634e487b7160e01b5f52603260045260245ffd5b5f60208284031215610fc4575f5ffd5b81356001600160a01b0381168114610fda575f5ffd5b9392505050565b5f60018201610ff257610ff2610f5b565b5060010190565b81810381811115610f8657610f86610f5b565b8051801515811461101b575f5ffd5b919050565b5f5f5f5f5f5f60c08789031215611035575f5ffd5b86516020880151604089015160608a01519298509096509450925061105c6080880161100c565b91505f60a08801519050809150509295509295509295565b5f5f5f5f5f60a08688031215611088575f5ffd5b855160208701516040880151919650945092506110a76060870161100c565b6080969096015194979396509194939291505056fea26469706673582212207ad90b2ecd72bffb39c4581b1c350a3201215b712dd46f12c0749c0504b30d5764736f6c634300081c0033",
  "linkReferences": {},
  "deployedLinkReferences": {}
}