{
  "_format": "hh-sol-artifact-1",
  "contractName": "CipherCounterOffer",
  "sourceName": "contracts/CipherCounterOffer.sol",
  "abi": [
    {
      "inputs": [],
      "stateMutability": "nonpayable",
      "type": "constructor"
    },
    {
      "inputs": [],
      "name": "ECDSAInvalidSignature",
      "type": "error"
    },
    {
      "inputs": [
        {
          "internalType": "uint256",
          "name": "length",
          "type": "uint256"
        }
      ],
      "name": "ECDSAInvalidSignatureLength",
      "type": "error"
    },
    {
      "inputs": [
        {
          "internalType": "bytes32",
          "name": "s",
          "type": "bytes32"
        }
      ],
      "name": "ECDSAInvalidSignatureS",
      "type": "error"
    },
    {
      "inputs": [
        {
          "internalType": "uint8",
          "name": "got",
          "type": "uint8"
        },
        {
          "internalType": "uint8",
          "name": "expected",
          "type": "uint8"
        }
      ],
      "name": "InvalidEncryptedInput",
      "type": "error"
    },
    {
      "inputs": [],
      "name": "InvalidShortString",
      "type": "error"
    },
    {
      "inputs": [
        {
          "internalType": "int32",
          "name": "value",
          "type": "int32"
        }
      ],
      "name": "SecurityZoneOutOfBounds",
      "type": "error"
    },
    {
      "inputs": [],
      "name": "SignerNotMessageSender",
      "type": "error"
    },
    {
      "inputs": [],
      "name": "SignerNotOwner",
      "type": "error"
    },
    {
      "inputs": [
        {
          "internalType": "string",
          "name": "str",
          "type": "string"
        }
      ],
      "name": "StringTooLong",
      "type": "error"
    },
    {
      "anonymous": false,
      "inputs": [
        {
          "indexed": false,
          "internalType": "string",
          "name": "role",
          "type": "string"
        }
      ],
      "name": "BenchmarkUpdated",
      "type": "event"
    },
    {
      "anonymous": false,
      "inputs": [
        {
          "indexed": true,
          "internalType": "address",
          "name": "candidate",
          "type": "address"
        }
      ],
      "name": "CounterOfferComputed",
      "type": "event"
    },
    {
      "anonymous": false,
      "inputs": [
        {
          "indexed": true,
          "internalType": "address",
          "name": "candidate",
          "type": "address"
        },
        {
          "indexed": false,
          "internalType": "string",
          "name": "role",
          "type": "string"
        }
      ],
      "name": "CounterOfferRequested",
      "type": "event"
    },
    {
      "anonymous": false,
      "inputs": [],
      "name": "EIP712DomainChanged",
      "type": "event"
    },
    {
      "inputs": [],
      "name": "admin",
      "outputs": [
        {
          "internalType": "address",
          "name": "",
          "type": "address"
        }
      ],
      "stateMutability": "view",
      "type": "function"
    },
    {
      "inputs": [
        {
          "internalType": "uint256",
          "name": "",
          "type": "uint256"
        }
      ],
      "name": "benchmarkRoles",
      "outputs": [
        {
          "internalType": "string",
          "name": "",
          "type": "string"
        }
      ],
      "stateMutability": "view",
      "type": "function"
    },
    {
      "inputs": [
        {
          "internalType": "bytes32",
          "name": "",
          "type": "bytes32"
        }
      ],
      "name": "benchmarks",
      "outputs": [
        {
          "internalType": "string",
          "name": "role",
          "type": "string"
        },
        {
          "internalType": "euint32",
          "name": "p25Salary",
          "type": "bytes32"
        },
        {
          "internalType": "euint32",
          "name": "p50Salary",
          "type": "bytes32"
        },
        {
          "internalType": "euint32",
          "name": "p75Salary",
          "type": "bytes32"
        },
        {
          "internalType": "euint32",
          "name": "p90Salary",
          "type": "bytes32"
        },
        {
          "internalType": "bool",
          "name": "active",
          "type": "bool"
        }
      ],
      "stateMutability": "view",
      "type": "function"
    },
    {
      "inputs": [
        {
          "internalType": "address",
          "name": "candidate",
          "type": "address"
        }
      ],
      "name": "computeCounterOffer",
      "outputs": [],
      "stateMutability": "nonpayable",
      "type": "function"
    },
    {
      "inputs": [
        {
          "internalType": "address",
          "name": "candidate",
          "type": "address"
        }
      ],
      "name": "computeLeverageScore",
      "outputs": [
        {
          "internalType": "euint32",
          "name": "",
          "type": "bytes32"
        }
      ],
      "stateMutability": "nonpayable",
      "type": "function"
    },
    {
      "inputs": [],
      "name": "eip712Domain",
      "outputs": [
        {
          "internalType": "bytes1",
          "name": "fields",
          "type": "bytes1"
        },
        {
          "internalType": "string",
          "name": "name",
          "type": "string"
        },
        {
          "internalType": "string",
          "name": "version",
          "type": "string"
        },
        {
          "internalType": "uint256",
          "name": "chainId",
          "type": "uint256"
        },
        {
          "internalType": "address",
          "name": "verifyingContract",
          "type": "address"
        },
        {
          "internalType": "bytes32",
          "name": "salt",
          "type": "bytes32"
        },
        {
          "internalType": "uint256[]",
          "name": "extensions",
          "type": "uint256[]"
        }
      ],
      "stateMutability": "view",
      "type": "function"
    },
    {
      "inputs": [],
      "name": "getBenchmarkRoles",
      "outputs": [
        {
          "internalType": "string[]",
          "name": "",
          "type": "string[]"
        }
      ],
      "stateMutability": "view",
      "type": "function"
    },
    {
      "inputs": [
        {
          "internalType": "address",
          "name": "candidate",
          "type": "address"
        }
      ],
      "name": "getRequestStatus",
      "outputs": [
        {
          "internalType": "bool",
          "name": "hasRequest",
          "type": "bool"
        },
        {
          "internalType": "bool",
          "name": "computed",
          "type": "bool"
        },
        {
          "internalType": "string",
          "name": "role",
          "type": "string"
        },
        {
          "internalType": "uint256",
          "name": "submittedAt",
          "type": "uint256"
        }
      ],
      "stateMutability": "view",
      "type": "function"
    },
    {
      "inputs": [],
      "name": "getTotalRequests",
      "outputs": [
        {
          "internalType": "uint256",
          "name": "",
          "type": "uint256"
        }
      ],
      "stateMutability": "view",
      "type": "function"
    },
    {
      "inputs": [
        {
          "internalType": "address",
          "name": "candidate",
          "type": "address"
        }
      ],
      "name": "isBelowMarketMedian",
      "outputs": [
        {
          "internalType": "ebool",
          "name": "",
          "type": "bytes32"
        }
      ],
      "stateMutability": "nonpayable",
      "type": "function"
    },
    {
      "inputs": [
        {
          "components": [
            {
              "internalType": "uint256",
              "name": "ctHash",
              "type": "uint256"
            },
            {
              "internalType": "uint8",
              "name": "securityZone",
              "type": "uint8"
            },
            {
              "internalType": "uint8",
              "name": "utype",
              "type": "uint8"
            },
            {
              "internalType": "bytes",
              "name": "signature",
              "type": "bytes"
            }
          ],
          "internalType": "struct InEuint32",
          "name": "inCurrentSalary",
          "type": "tuple"
        },
        {
          "components": [
            {
              "internalType": "uint256",
              "name": "ctHash",
              "type": "uint256"
            },
            {
              "internalType": "uint8",
              "name": "securityZone",
              "type": "uint8"
            },
            {
              "internalType": "uint8",
              "name": "utype",
              "type": "uint8"
            },
            {
              "internalType": "bytes",
              "name": "signature",
              "type": "bytes"
            }
          ],
          "internalType": "struct InEuint32",
          "name": "inTargetIncrease",
          "type": "tuple"
        },
        {
          "components": [
            {
              "internalType": "uint256",
              "name": "ctHash",
              "type": "uint256"
            },
            {
              "internalType": "uint8",
              "name": "securityZone",
              "type": "uint8"
            },
            {
              "internalType": "uint8",
              "name": "utype",
              "type": "uint8"
            },
            {
              "internalType": "bytes",
              "name": "signature",
              "type": "bytes"
            }
          ],
          "internalType": "struct InEuint32",
          "name": "inYearsAtCompany",
          "type": "tuple"
        },
        {
          "internalType": "string",
          "name": "role",
          "type": "string"
        }
      ],
      "name": "requestCounterOffer",
      "outputs": [],
      "stateMutability": "nonpayable",
      "type": "function"
    },
    {
      "inputs": [
        {
          "internalType": "address",
          "name": "",
          "type": "address"
        }
      ],
      "name": "requests",
      "outputs": [
        {
          "internalType": "euint32",
          "name": "currentSalary",
          "type": "bytes32"
        },
        {
          "internalType": "euint32",
          "name": "targetIncrease",
          "type": "bytes32"
        },
        {
          "internalType": "euint32",
          "name": "yearsAtCompany",
          "type": "bytes32"
        },
        {
          "internalType": "string",
          "name": "role",
          "type": "string"
        },
        {
          "internalType": "bool",
          "name": "computed",
          "type": "bool"
        },
        {
          "internalType": "uint256",
          "name": "submittedAt",
          "type": "uint256"
        },
        {
          "internalType": "uint256",
          "name": "computedAt",
          "type": "uint256"
        }
      ],
      "stateMutability": "view",
      "type": "function"
    },
    {
      "inputs": [
        {
          "components": [
            {
              "internalType": "bytes32",
              "name": "publicKey",
              "type": "bytes32"
            },
            {
              "internalType": "bytes",
              "name": "signature",
              "type": "bytes"
            }
          ],
          "internalType": "struct Permission",
          "name": "permission",
          "type": "tuple"
        }
      ],
      "name": "sealCurrentSalary",
      "outputs": [
        {
          "internalType": "uint32",
          "name": "",
          "type": "uint32"
        }
      ],
      "stateMutability": "view",
      "type": "function"
    },
    {
      "inputs": [
        {
          "internalType": "string",
          "name": "role",
          "type": "string"
        },
        {
          "components": [
            {
              "internalType": "uint256",
              "name": "ctHash",
              "type": "uint256"
            },
            {
              "internalType": "uint8",
              "name": "securityZone",
              "type": "uint8"
            },
            {
              "internalType": "uint8",
              "name": "utype",
              "type": "uint8"
            },
            {
              "internalType": "bytes",
              "name": "signature",
              "type": "bytes"
            }
          ],
          "internalType": "struct InEuint32",
          "name": "inP25",
          "type": "tuple"
        },
        {
          "components": [
            {
              "internalType": "uint256",
              "name": "ctHash",
              "type": "uint256"
            },
            {
              "internalType": "uint8",
              "name": "securityZone",
              "type": "uint8"
            },
            {
              "internalType": "uint8",
              "name": "utype",
              "type": "uint8"
            },
            {
              "internalType": "bytes",
              "name": "signature",
              "type": "bytes"
            }
          ],
          "internalType": "struct InEuint32",
          "name": "inP50",
          "type": "tuple"
        },
        {
          "components": [
            {
              "internalType": "uint256",
              "name": "ctHash",
              "type": "uint256"
            },
            {
              "internalType": "uint8",
              "name": "securityZone",
              "type": "uint8"
            },
            {
              "internalType": "uint8",
              "name": "utype",
              "type": "uint8"
            },
            {
              "internalType": "bytes",
              "name": "signature",
              "type": "bytes"
            }
          ],
          "internalType": "struct InEuint32",
          "name": "inP75",
          "type": "tuple"
        },
        {
          "components": [
            {
              "internalType": "uint256",
              "name": "ctHash",
              "type": "uint256"
            },
            {
              "internalType": "uint8",
              "name": "securityZone",
              "type": "uint8"
            },
            {
              "internalType": "uint8",
              "name": "utype",
              "type": "uint8"
            },
            {
              "internalType": "bytes",
              "name": "signature",
              "type": "bytes"
            }
          ],
          "internalType": "struct InEuint32",
          "name": "inP90",
          "type": "tuple"
        }
      ],
      "name": "setBenchmark",
      "outputs": [],
      "stateMutability": "nonpayable",
      "type": "function"
    },
    {
      "inputs": [],
      "name": "totalRequests",
      "outputs": [
        {
          "internalType": "uint256",
          "name": "",
          "type": "uint256"
        }
      ],
      "stateMutability": "view",
      "type": "function"
    }
  ],
  "bytecode": "0x610160604052348015610010575f5ffd5b506040805180820182526011815270233432b734bc102832b936b4b9b9b4b7b760791b602080830191909152825180840190935260038352620312e360ec1b908301529061005e825f610119565b6101205261006d816001610119565b61014052815160208084019190912060e052815190820120610100524660a0526100f960e05161010051604080517f8b73c3c69bb8fe3d512ecc4cf759cc79239f7b179b0ffacaa9a75d522b39400f60208201529081019290925260608201524660808201523060a08201525f9060c00160405160208183030381529060405280519060200120905090565b60805250503060c052600580546001600160a01b0319163317905561033b565b5f6020835110156101345761012d8361014b565b9050610145565b8161013f8482610229565b5060ff90505b92915050565b5f5f829050601f8151111561017e578260405163305a27a960e01b815260040161017591906102e3565b60405180910390fd5b805161018982610318565b179392505050565b634e487b7160e01b5f52604160045260245ffd5b600181811c908216806101b957607f821691505b6020821081036101d757634e487b7160e01b5f52602260045260245ffd5b50919050565b601f82111561022457805f5260205f20601f840160051c810160208510156102025750805b601f840160051c820191505b81811015610221575f815560010161020e565b50505b505050565b81516001600160401b0381111561024257610242610191565b6102568161025084546101a5565b846101dd565b6020601f821160018114610288575f83156102715750848201515b5f19600385901b1c1916600184901b178455610221565b5f84815260208120601f198516915b828110156102b75787850151825560209485019460019092019101610297565b50848210156102d457868401515f19600387901b60f8161c191681555b50505050600190811b01905550565b602081525f82518060208401528060208501604085015e5f604082850101526040601f19601f83011684010191505092915050565b805160208083015191908110156101d7575f1960209190910360031b1b16919050565b60805160a05160c05160e05161010051610120516101405161244561038c5f395f61109d01525f61106c01525f6113ce01525f6113a601525f61130101525f61132b01525f61135501526124455ff3fe608060405234801561000f575f5ffd5b50600436106100f0575f3560e01c80638aea61dc11610093578063f0e22d5211610063578063f0e22d5214610225578063f851a4401461022d578063f98fe62814610258578063ffba75861461027b575f5ffd5b80638aea61dc146101e1578063b93cc944146101ea578063d1014b5a146101ff578063eb7f539614610212575f5ffd5b80635500d73d116100ce5780635500d73d1461015b57806374adad1d1461017b57806384b0196e146101a15780638a995fd4146101bc575f5ffd5b806311ada022146100f45780631a7f46ad1461011257806322d6506d14610133575b5f5ffd5b6100fc61028e565b6040516101099190611a8c565b60405180910390f35b610125610120366004611aef565b610362565b604051908152602001610109565b610146610141366004611bb2565b6104c9565b60405163ffffffff9091168152602001610109565b61016e610169366004611c43565b6105d7565b6040516101099190611c5a565b61018e610189366004611aef565b61067d565b6040516101099796959493929190611c6c565b6101a9610745565b6040516101099796959493929190611ce9565b6101cf6101ca366004611c43565b610787565b60405161010996959493929190611d58565b61012560065481565b6101fd6101f8366004611def565b610844565b005b6101fd61020d366004611aef565b610aac565b610125610220366004611aef565b610ba2565b600654610125565b600554610240906001600160a01b031681565b6040516001600160a01b039091168152602001610109565b61026b610266366004611aef565b610c45565b6040516101099493929190611ed1565b6101fd610289366004611f04565b610d1b565b60606004805480602002602001604051908101604052809291908181526020015f905b82821015610359578382905f5260205f200180546102ce90611fbf565b80601f01602080910402602001604051908101604052809291908181526020018280546102fa90611fbf565b80156103455780601f1061031c57610100808354040283529160200191610345565b820191905f5260205f20905b81548152906001019060200180831161032857829003601f168201915b5050505050815260200190600101906102b1565b50505050905090565b6001600160a01b0381165f908152600260205260408082209051829061038c906003840190611ff1565b60408051918290039091205f81815260036020529190912060058101549192509060ff166103f95760405162461bcd60e51b81526020600482015260156024820152744e6f2062656e63686d61726b20666f7220726f6c6560581b60448201526064015b60405180910390fd5b5f6104035f610f0c565b90505f6104106001610f0c565b90505f610424865f01548560010154610f1d565b90505f610438875f01548660020154610f1d565b90505f61044c885f01548760030154610f1d565b90505f610460895f01548860040154610f1d565b905061047e8661047986886104745f610f0c565b610f65565b610fc6565b95506104928661047985886104745f610f0c565b95506104a68661047984886104745f610f0c565b95506104ba8661047983886104745f610f0c565b9b9a5050505050505050505050565b5f815f6105297f6bdaeb2d29561f159c7ef98b16b27015fb2aeb87209c7ee656226d912f59927d835f015160405160200161050e929190918252602082015260400190565b60405160208183030381529060405280519060200120611007565b90505f61053a828460200151611033565b90506001600160a01b038116331461056557604051633093a27760e01b815260040160405180910390fd5b335f908152600260205260409020600501546105b65760405162461bcd60e51b815260206004820152601060248201526f139bc81c995c5d595cdd08199bdd5b9960821b60448201526064016103f0565b335f908152600260205260409020546105ce9061105b565b95945050505050565b600481815481106105e6575f80fd5b905f5260205f20015f9150905080546105fe90611fbf565b80601f016020809104026020016040519081016040528092919081815260200182805461062a90611fbf565b80156106755780601f1061064c57610100808354040283529160200191610675565b820191905f5260205f20905b81548152906001019060200180831161065857829003601f168201915b505050505081565b600260208190525f9182526040909120805460018201549282015460038301805492949391926106ac90611fbf565b80601f01602080910402602001604051908101604052809291908181526020018280546106d890611fbf565b80156107235780601f106106fa57610100808354040283529160200191610723565b820191905f5260205f20905b81548152906001019060200180831161070657829003601f168201915b5050505060048301546005840154600690940154929360ff9091169290915087565b5f6060805f5f5f6060610756611065565b61075e611096565b604080515f80825260208201909252600f60f81b9b939a50919850469750309650945092509050565b60036020525f90815260409020805481906107a190611fbf565b80601f01602080910402602001604051908101604052809291908181526020018280546107cd90611fbf565b80156108185780601f106107ef57610100808354040283529160200191610818565b820191905f5260205f20905b8154815290600101906020018083116107fb57829003601f168201915b505050600184015460028501546003860154600487015460059097015495969295919450925060ff1686565b6005546001600160a01b0316331461088f5760405162461bcd60e51b815260206004820152600e60248201526d139bdd08185d5d1a1bdc9a5e995960921b60448201526064016103f0565b5f86866040516108a0929190612062565b60408051918290039091205f8181526003602052919091206005015490915060ff1661090457600480546001810182555f919091527f8a35acfbc15ff81a39ae7d344fd709f28e8600b4aa8c65c6b64bfe7fe36bd19b016109028789836120ba565b505b6040518060c0016040528088888080601f0160208091040260200160405190810160405280939291908181526020018383808284375f9201919091525050509082525060200161095b61095688612188565b6110c3565b815260200161096c61095687612188565b815260200161097d61095686612188565b815260200161098e61095685612188565b815260016020918201525f838152600390915260409020815181906109b39082612213565b506020820151816001015560408201518160020155606082015181600301556080820151816004015560a0820151816005015f6101000a81548160ff021916908315150217905550905050610a1b60035f8381526020019081526020015f2060010154611129565b5f81815260036020526040902060020154610a3590611129565b5f8181526003602081905260409091200154610a5090611129565b5f81815260036020526040902060040154610a6a90611129565b7f442a5b931efe32f6f6588f1d747587a8f8a6bef897de21a78aea8c73ff2d613c8787604051610a9b9291906122cd565b60405180910390a150505050505050565b6005546001600160a01b03163314610af75760405162461bcd60e51b815260206004820152600e60248201526d139bdd08185d5d1a1bdc9a5e995960921b60448201526064016103f0565b6001600160a01b0381165f908152600260205260409020600481015460ff1615610b565760405162461bcd60e51b815260206004820152601060248201526f105b1c9958591e4818dbdb5c1d5d195960821b60448201526064016103f0565b60048101805460ff191660011790554260068201556040516001600160a01b038316907f48ca7fcf7f5d2dd741a3890de28ffdde0a5f99ba1fa0708e366f8470dcc88ea2905f90a25050565b6001600160a01b0381165f9081526002602052604080822090518290610bcc906003840190611ff1565b60408051918290039091205f81815260036020529190912060058101549192509060ff16610c345760405162461bcd60e51b81526020600482015260156024820152744e6f2062656e63686d61726b20666f7220726f6c6560581b60448201526064016103f0565b6105ce835f01548260020154611193565b6001600160a01b0381165f908152600260205260408120600581015460048201546003830180548594606094869491938115159360ff909316929091908290610c8d90611fbf565b80601f0160208091040260200160405190810160405280929190818152602001828054610cb990611fbf565b8015610d045780601f10610cdb57610100808354040283529160200191610d04565b820191905f5260205f20905b815481529060010190602001808311610ce757829003601f168201915b505050505091509450945094509450509193509193565b6040518060e00160405280610d338761095690612188565b8152602001610d4461095687612188565b8152602001610d5561095686612188565b815260200183838080601f0160208091040260200160405190810160405280939291908181526020018383808284375f92018290525093855250505060208083018290524260408085019190915260609384018390523383526002808352928190208551815591850151600183015584015191810191909155908201516003820190610de19082612213565b50608082015160048201805460ff191691151591909117905560a0820151600582015560c090910151600690910155335f90815260026020526040902054610e2890611129565b335f90815260026020526040902060010154610e4390611129565b335f9081526002602081905260409091200154610e5f90611129565b335f90815260026020526040902054610e77906111d4565b335f90815260026020526040902060010154610e92906111d4565b335f9081526002602081905260409091200154610eae906111d4565b60068054905f610ebd836122fb565b9190505550336001600160a01b03167f70cbcd2177e4166b088a72d88c9e065e9f8cb0276f34632186e569661a15ae9d8383604051610efd9291906122cd565b60405180910390a25050505050565b5f610f17825f611212565b92915050565b5f610f2783611220565b610f3757610f345f610f0c565b92505b610f4082611220565b610f5057610f4d5f610f0c565b91505b610f5e600484846012611229565b9392505050565b5f610f6f84611220565b610f7f57610f7c5f6112c1565b93505b610f8883611220565b610f9857610f955f610f0c565b92505b610fa182611220565b610fb157610fae5f610f0c565b91505b610fbe60048585856112cc565b949350505050565b5f610fd083611220565b610fe057610fdd5f610f0c565b92505b610fe982611220565b610ff957610ff65f610f0c565b91505b610f5e600484846008611229565b5f610f176110136112f5565b8360405161190160f01b8152600281019290925260228201526042902090565b5f5f5f5f611041868661141e565b9250925092506110518282611467565b5090949350505050565b5f610f1782611523565b60606110917f00000000000000000000000000000000000000000000000000000000000000005f611597565b905090565b60606110917f00000000000000000000000000000000000000000000000000000000000000006001611597565b5f6110d382604001516004611640565b60408051608080820183525f808352602080840182905283850191909152606092830183905283519182018452855182528086015160ff16908201526004928101929092528084015190820152610f1790611673565b604051631974142760e21b81526004810182905230602482015273ea30c4b8b44078bbf8a6ef5b9f1ec1626c7848d9906365d0509c906044015b5f604051808303815f87803b15801561117a575f5ffd5b505af115801561118c573d5f5f3e3d5ffd5b5050505050565b5f61119d83611220565b6111ad576111aa5f610f0c565b92505b6111b682611220565b6111c6576111c35f610f0c565b91505b610f5e600484846014611229565b604051631974142760e21b81526004810182905233602482015273ea30c4b8b44078bbf8a6ef5b9f1ec1626c7848d9906365d0509c90604401611163565b5f5f610fbe846004856116ca565b5f811515610f17565b5f73ea30c4b8b44078bbf8a6ef5b9f1ec1626c7848d9631888debd8684611250888861176f565b604080515f815260208101918290526001600160e01b031960e087901b169091526112819392919060248101612333565b6020604051808303815f875af115801561129d573d5f5f3e3d5ffd5b505050506040513d601f19601f820116820180604052508101906105ce919061238d565b5f610f17825f6117dc565b5f73ea30c4b8b44078bbf8a6ef5b9f1ec1626c7848d9631888debd8660046112508888886117f4565b5f306001600160a01b037f00000000000000000000000000000000000000000000000000000000000000001614801561134d57507f000000000000000000000000000000000000000000000000000000000000000046145b1561137757507f000000000000000000000000000000000000000000000000000000000000000090565b611091604080517f8b73c3c69bb8fe3d512ecc4cf759cc79239f7b179b0ffacaa9a75d522b39400f60208201527f0000000000000000000000000000000000000000000000000000000000000000918101919091527f000000000000000000000000000000000000000000000000000000000000000060608201524660808201523060a08201525f9060c00160405160208183030381529060405280519060200120905090565b5f5f5f8351604103611455576020840151604085015160608601515f1a61144788828585611885565b955095509550505050611460565b505081515f91506002905b9250925092565b5f82600381111561147a5761147a61231f565b03611483575050565b60018260038111156114975761149761231f565b036114b55760405163f645eedf60e01b815260040160405180910390fd5b60028260038111156114c9576114c961231f565b036114ea5760405163fce698f760e01b8152600481018290526024016103f0565b60038260038111156114fe576114fe61231f565b0361151f576040516335e2f38360e21b8152600481018290526024016103f0565b5050565b60405163f6bc7f3f60e01b8152600481018290525f9073ea30c4b8b44078bbf8a6ef5b9f1ec1626c7848d99063f6bc7f3f90602401602060405180830381865afa158015611573573d5f5f3e3d5ffd5b505050506040513d601f19601f82011682018060405250810190610f17919061238d565b606060ff83146115b1576115aa8361194d565b9050610f17565b8180546115bd90611fbf565b80601f01602080910402602001604051908101604052809291908181526020018280546115e990611fbf565b80156116345780601f1061160b57610100808354040283529160200191611634565b820191905f5260205f20905b81548152906001019060200180831161161757829003601f168201915b50505050509050610f17565b8060ff168260ff161461151f576040516367cf307160e01b815260ff8084166004830152821660248201526044016103f0565b6040516313fce3b160e11b81525f9073ea30c4b8b44078bbf8a6ef5b9f1ec1626c7848d9906327f9c762906116ae90859033906004016123a4565b6020604051808303815f875af1158015611573573d5f5f3e3d5ffd5b604080515f8082526020820190925273ea30c4b8b44078bbf8a6ef5b9f1ec1626c7848d990631888debd908590601a90611710898960ff1661170b8a61198a565b6119bf565b6040518563ffffffff1660e01b815260040161172f9493929190612333565b6020604051808303815f875af115801561174b573d5f5f3e3d5ffd5b505050506040513d601f19601f82011682018060405250810190610fbe919061238d565b60408051600280825260608083018452925f929190602083019080368337019050509050835f1c815f815181106117a8576117a86123fb565b602002602001018181525050825f1c816001815181106117ca576117ca6123fb565b60209081029190910101529392505050565b5f8083156117e8575060015b5f6105ce825f866116ca565b604080516003808252608082019092526060915f9190602082018480368337019050509050845f1c815f8151811061182e5761182e6123fb565b602002602001018181525050835f1c81600181518110611850576118506123fb565b602002602001018181525050825f1c81600281518110611872576118726123fb565b6020908102919091010152949350505050565b5f80807f7fffffffffffffffffffffffffffffff5d576e7357a4501ddfe92f46681b20a08411156118be57505f91506003905082611943565b604080515f808252602082018084528a905260ff891692820192909252606081018790526080810186905260019060a0016020604051602081039080840390855afa15801561190f573d5f5f3e3d5ffd5b5050604051601f1901519150506001600160a01b03811661193a57505f925060019150829050611943565b92505f91508190505b9450945094915050565b60605f61195983611a37565b6040805160208082528183019092529192505f91906020820181803683375050509182525060208101929092525090565b5f5f8260030b12156119b5576040516311ead17f60e31b8152600383900b60048201526024016103f0565b5063ffffffff1690565b604080516003808252608082019092526060915f919060208201848036833701905050905084815f815181106119f7576119f76123fb565b6020026020010181815250508381600181518110611a1757611a176123fb565b6020026020010181815250508281600281518110611872576118726123fb565b5f60ff8216601f811115610f1757604051632cd44ac360e21b815260040160405180910390fd5b5f81518084528060208401602086015e5f602082860101526020601f19601f83011685010191505092915050565b5f602082016020835280845180835260408501915060408160051b8601019250602086015f5b82811015611ae357603f19878603018452611ace858351611a5e565b94506020938401939190910190600101611ab2565b50929695505050505050565b5f60208284031215611aff575f5ffd5b81356001600160a01b0381168114610f5e575f5ffd5b634e487b7160e01b5f52604160045260245ffd5b5f82601f830112611b38575f5ffd5b81356001600160401b03811115611b5157611b51611b15565b604051601f8201601f19908116603f011681016001600160401b0381118282101715611b7f57611b7f611b15565b604052818152838201602001851015611b96575f5ffd5b816020850160208301375f918101602001919091529392505050565b5f60208284031215611bc2575f5ffd5b81356001600160401b03811115611bd7575f5ffd5b820160408185031215611be8575f5ffd5b604080519081016001600160401b0381118282101715611c0a57611c0a611b15565b6040528135815260208201356001600160401b03811115611c29575f5ffd5b611c3586828501611b29565b602083015250949350505050565b5f60208284031215611c53575f5ffd5b5035919050565b602081525f610f5e6020830184611a5e565b87815286602082015285604082015260e060608201525f611c9060e0830187611a5e565b94151560808301525060a081019290925260c090910152949350505050565b5f8151808452602084019350602083015f5b82811015611cdf578151865260209586019590910190600101611cc1565b5093949350505050565b60ff60f81b8816815260e060208201525f611d0760e0830189611a5e565b8281036040840152611d198189611a5e565b606084018890526001600160a01b038716608085015260a0840186905283810360c08501529050611d4a8185611caf565b9a9950505050505050505050565b60c081525f611d6a60c0830189611a5e565b602083019790975250604081019490945260608401929092526080830152151560a090910152919050565b5f5f83601f840112611da5575f5ffd5b5081356001600160401b03811115611dbb575f5ffd5b602083019150836020828501011115611dd2575f5ffd5b9250929050565b5f60808284031215611de9575f5ffd5b50919050565b5f5f5f5f5f5f60a08789031215611e04575f5ffd5b86356001600160401b03811115611e19575f5ffd5b611e2589828a01611d95565b90975095505060208701356001600160401b03811115611e43575f5ffd5b611e4f89828a01611dd9565b94505060408701356001600160401b03811115611e6a575f5ffd5b611e7689828a01611dd9565b93505060608701356001600160401b03811115611e91575f5ffd5b611e9d89828a01611dd9565b92505060808701356001600160401b03811115611eb8575f5ffd5b611ec489828a01611dd9565b9150509295509295509295565b84151581528315156020820152608060408201525f611ef36080830185611a5e565b905082606083015295945050505050565b5f5f5f5f5f60808688031215611f18575f5ffd5b85356001600160401b03811115611f2d575f5ffd5b611f3988828901611dd9565b95505060208601356001600160401b03811115611f54575f5ffd5b611f6088828901611dd9565b94505060408601356001600160401b03811115611f7b575f5ffd5b611f8788828901611dd9565b93505060608601356001600160401b03811115611fa2575f5ffd5b611fae88828901611d95565b969995985093965092949392505050565b600181811c90821680611fd357607f821691505b602082108103611de957634e487b7160e01b5f52602260045260245ffd5b5f5f8354611ffe81611fbf565b600182168015612015576001811461202a57612057565b60ff1983168652811515820286019350612057565b865f5260205f205f5b8381101561204f57815488820152600190910190602001612033565b505081860193505b509195945050505050565b818382375f9101908152919050565b601f8211156120b557805f5260205f20601f840160051c810160208510156120965750805b601f840160051c820191505b8181101561118c575f81556001016120a2565b505050565b6001600160401b038311156120d1576120d1611b15565b6120e5836120df8354611fbf565b83612071565b5f601f841160018114612116575f85156120ff5750838201355b5f19600387901b1c1916600186901b17835561118c565b5f83815260208120601f198716915b828110156121455786850135825560209485019460019092019101612125565b5086821015612161575f1960f88860031b161c19848701351681555b505060018560011b0183555050505050565b803560ff81168114612183575f5ffd5b919050565b5f60808236031215612198575f5ffd5b604051608081016001600160401b03811182821017156121ba576121ba611b15565b604052823581526121cd60208401612173565b60208201526121de60408401612173565b604082015260608301356001600160401b038111156121fb575f5ffd5b61220736828601611b29565b60608301525092915050565b81516001600160401b0381111561222c5761222c611b15565b6122408161223a8454611fbf565b84612071565b6020601f821160018114612272575f831561225b5750848201515b5f19600385901b1c1916600184901b17845561118c565b5f84815260208120601f198516915b828110156122a15787850151825560209485019460019092019101612281565b50848210156122be57868401515f19600387901b60f8161c191681555b50505050600190811b01905550565b60208152816020820152818360408301375f818301604090810191909152601f909201601f19160101919050565b5f6001820161231857634e487b7160e01b5f52601160045260245ffd5b5060010190565b634e487b7160e01b5f52602160045260245ffd5b60ff851681525f6020851061235657634e487b7160e01b5f52602160045260245ffd5b846020830152608060408301526123706080830185611caf565b82810360608401526123828185611caf565b979650505050505050565b5f6020828403121561239d575f5ffd5b5051919050565b604081528251604082015260ff602084015116606082015260ff60408401511660808201525f6060840151608060a08401526123e360c0840182611a5e565b91505060018060a01b03831660208301529392505050565b634e487b7160e01b5f52603260045260245ffdfea2646970667358221220349be9df089a94a20b16879f11020d12896825ec8b2c44d1ecbe5a3eb79a4e9064736f6c634300081c0033",
  "linkReferences": {},
  "deployedLinkReferences": {}
}