{
  "_format": "hh-sol-artifact-1",
  "contractName": "CipherEscrow",
  "sourceName": "contracts/CipherEscrow.sol",
  "abi": [
    {
      "inputs": [
        {
          "internalType": "address",
          "name": "_treasury",
          "type": "address"
        }
      ],
      "stateMutability": "nonpayable",
      "type": "constructor"
    },
    {
      "inputs": [
        {
          "internalType": "uint8",
          "name": "got",
          "type": "uint8"
        },
        {
          "internalType": "uint8",
          "name": "expected",
          "type": "uint8"
        }
      ],
      "name": "InvalidEncryptedInput",
      "type": "error"
    },
    {
      "inputs": [],
      "name": "InvalidShortString",
      "type": "error"
    },
    {
      "inputs": [
        {
          "internalType": "int32",
          "name": "value",
          "type": "int32"
        }
      ],
      "name": "SecurityZoneOutOfBounds",
      "type": "error"
    },
    {
      "inputs": [],
      "name": "SignerNotMessageSender",
      "type": "error"
    },
    {
      "inputs": [],
      "name": "SignerNotOwner",
      "type": "error"
    },
    {
      "inputs": [
        {
          "internalType": "string",
          "name": "str",
          "type": "string"
        }
      ],
      "name": "StringTooLong",
      "type": "error"
    },
    {
      "anonymous": false,
      "inputs": [],
      "name": "EIP712DomainChanged",
      "type": "event"
    },
    {
      "anonymous": false,
      "inputs": [
        {
          "indexed": true,
          "internalType": "address",
          "name": "candidate",
          "type": "address"
        },
        {
          "indexed": false,
          "internalType": "uint256",
          "name": "premium",
          "type": "uint256"
        },
        {
          "indexed": false,
          "internalType": "uint256",
          "name": "interviewsTarget",
          "type": "uint256"
        }
      ],
      "name": "InsuranceActivated",
      "type": "event"
    },
    {
      "anonymous": false,
      "inputs": [
        {
          "indexed": true,
          "internalType": "address",
          "name": "candidate",
          "type": "address"
        },
        {
          "indexed": false,
          "internalType": "uint256",
          "name": "protocolFee",
          "type": "uint256"
        }
      ],
      "name": "InsuranceCompleted",
      "type": "event"
    },
    {
      "anonymous": false,
      "inputs": [
        {
          "indexed": true,
          "internalType": "address",
          "name": "candidate",
          "type": "address"
        },
        {
          "indexed": false,
          "internalType": "uint256",
          "name": "refundAmount",
          "type": "uint256"
        }
      ],
      "name": "InsuranceExpired",
      "type": "event"
    },
    {
      "anonymous": false,
      "inputs": [
        {
          "indexed": true,
          "internalType": "address",
          "name": "candidate",
          "type": "address"
        },
        {
          "indexed": false,
          "internalType": "uint256",
          "name": "refundAmount",
          "type": "uint256"
        }
      ],
      "name": "InsuranceRefunded",
      "type": "event"
    },
    {
      "anonymous": false,
      "inputs": [
        {
          "indexed": true,
          "internalType": "address",
          "name": "candidate",
          "type": "address"
        },
        {
          "indexed": false,
          "internalType": "uint256",
          "name": "interviewsDelivered",
          "type": "uint256"
        },
        {
          "indexed": false,
          "internalType": "uint256",
          "name": "remaining",
          "type": "uint256"
        }
      ],
      "name": "InterviewDelivered",
      "type": "event"
    },
    {
      "inputs": [],
      "name": "INTERVIEW_WINDOW",
      "outputs": [
        {
          "internalType": "uint256",
          "name": "",
          "type": "uint256"
        }
      ],
      "stateMutability": "view",
      "type": "function"
    },
    {
      "inputs": [],
      "name": "MIN_PREMIUM",
      "outputs": [
        {
          "internalType": "uint256",
          "name": "",
          "type": "uint256"
        }
      ],
      "stateMutability": "view",
      "type": "function"
    },
    {
      "inputs": [],
      "name": "PROTOCOL_FEE_BPS",
      "outputs": [
        {
          "internalType": "uint256",
          "name": "",
          "type": "uint256"
        }
      ],
      "stateMutability": "view",
      "type": "function"
    },
    {
      "inputs": [
        {
          "components": [
            {
              "internalType": "uint256",
              "name": "ctHash",
              "type": "uint256"
            },
            {
              "internalType": "uint8",
              "name": "securityZone",
              "type": "uint8"
            },
            {
              "internalType": "uint8",
              "name": "utype",
              "type": "uint8"
            },
            {
              "internalType": "bytes",
              "name": "signature",
              "type": "bytes"
            }
          ],
          "internalType": "struct InEuint32",
          "name": "inTargetSalaryMin",
          "type": "tuple"
        },
        {
          "components": [
            {
              "internalType": "uint256",
              "name": "ctHash",
              "type": "uint256"
            },
            {
              "internalType": "uint8",
              "name": "securityZone",
              "type": "uint8"
            },
            {
              "internalType": "uint8",
              "name": "utype",
              "type": "uint8"
            },
            {
              "internalType": "bytes",
              "name": "signature",
              "type": "bytes"
            }
          ],
          "internalType": "struct InEuint32",
          "name": "inTargetSalaryMax",
          "type": "tuple"
        },
        {
          "internalType": "string",
          "name": "targetRole",
          "type": "string"
        },
        {
          "internalType": "uint256",
          "name": "interviewsTarget",
          "type": "uint256"
        }
      ],
      "name": "activateInsurance",
      "outputs": [],
      "stateMutability": "payable",
      "type": "function"
    },
    {
      "inputs": [],
      "name": "admin",
      "outputs": [
        {
          "internalType": "address",
          "name": "",
          "type": "address"
        }
      ],
      "stateMutability": "view",
      "type": "function"
    },
    {
      "inputs": [
        {
          "internalType": "address",
          "name": "candidate",
          "type": "address"
        },
        {
          "components": [
            {
              "internalType": "uint256",
              "name": "ctHash",
              "type": "uint256"
            },
            {
              "internalType": "uint8",
              "name": "securityZone",
              "type": "uint8"
            },
            {
              "internalType": "uint8",
              "name": "utype",
              "type": "uint8"
            },
            {
              "internalType": "bytes",
              "name": "signature",
              "type": "bytes"
            }
          ],
          "internalType": "struct InEuint32",
          "name": "jobBudgetMax",
          "type": "tuple"
        }
      ],
      "name": "checkSalaryEligibility",
      "outputs": [
        {
          "internalType": "ebool",
          "name": "",
          "type": "bytes32"
        }
      ],
      "stateMutability": "nonpayable",
      "type": "function"
    },
    {
      "inputs": [],
      "name": "claimRefund",
      "outputs": [],
      "stateMutability": "nonpayable",
      "type": "function"
    },
    {
      "inputs": [],
      "name": "eip712Domain",
      "outputs": [
        {
          "internalType": "bytes1",
          "name": "fields",
          "type": "bytes1"
        },
        {
          "internalType": "string",
          "name": "name",
          "type": "string"
        },
        {
          "internalType": "string",
          "name": "version",
          "type": "string"
        },
        {
          "internalType": "uint256",
          "name": "chainId",
          "type": "uint256"
        },
        {
          "internalType": "address",
          "name": "verifyingContract",
          "type": "address"
        },
        {
          "internalType": "bytes32",
          "name": "salt",
          "type": "bytes32"
        },
        {
          "internalType": "uint256[]",
          "name": "extensions",
          "type": "uint256[]"
        }
      ],
      "stateMutability": "view",
      "type": "function"
    },
    {
      "inputs": [
        {
          "internalType": "address",
          "name": "candidate",
          "type": "address"
        }
      ],
      "name": "getOrderStatus",
      "outputs": [
        {
          "internalType": "enum CipherEscrow.InsuranceStatus",
          "name": "status",
          "type": "uint8"
        },
        {
          "internalType": "uint256",
          "name": "premium",
          "type": "uint256"
        },
        {
          "internalType": "uint256",
          "name": "interviewsDelivered",
          "type": "uint256"
        },
        {
          "internalType": "uint256",
          "name": "interviewsTarget",
          "type": "uint256"
        },
        {
          "internalType": "uint256",
          "name": "expiresAt",
          "type": "uint256"
        },
        {
          "internalType": "string",
          "name": "targetRole",
          "type": "string"
        }
      ],
      "stateMutability": "view",
      "type": "function"
    },
    {
      "inputs": [],
      "name": "getProtocolStats",
      "outputs": [
        {
          "internalType": "uint256",
          "name": "totalPremiums",
          "type": "uint256"
        },
        {
          "internalType": "uint256",
          "name": "totalRefunds",
          "type": "uint256"
        },
        {
          "internalType": "uint256",
          "name": "balance",
          "type": "uint256"
        }
      ],
      "stateMutability": "view",
      "type": "function"
    },
    {
      "inputs": [
        {
          "internalType": "address",
          "name": "",
          "type": "address"
        }
      ],
      "name": "hasActiveOrder",
      "outputs": [
        {
          "internalType": "bool",
          "name": "",
          "type": "bool"
        }
      ],
      "stateMutability": "view",
      "type": "function"
    },
    {
      "inputs": [
        {
          "internalType": "address",
          "name": "",
          "type": "address"
        }
      ],
      "name": "orders",
      "outputs": [
        {
          "internalType": "address",
          "name": "candidate",
          "type": "address"
        },
        {
          "internalType": "uint256",
          "name": "premium",
          "type": "uint256"
        },
        {
          "internalType": "euint32",
          "name": "targetSalaryMin",
          "type": "bytes32"
        },
        {
          "internalType": "euint32",
          "name": "targetSalaryMax",
          "type": "bytes32"
        },
        {
          "internalType": "string",
          "name": "targetRole",
          "type": "string"
        },
        {
          "internalType": "uint256",
          "name": "interviewsTarget",
          "type": "uint256"
        },
        {
          "internalType": "uint256",
          "name": "interviewsDelivered",
          "type": "uint256"
        },
        {
          "internalType": "enum CipherEscrow.InsuranceStatus",
          "name": "status",
          "type": "uint8"
        },
        {
          "internalType": "uint256",
          "name": "activatedAt",
          "type": "uint256"
        },
        {
          "internalType": "uint256",
          "name": "expiresAt",
          "type": "uint256"
        },
        {
          "internalType": "uint256",
          "name": "completedAt",
          "type": "uint256"
        }
      ],
      "stateMutability": "view",
      "type": "function"
    },
    {
      "inputs": [],
      "name": "protocolTreasury",
      "outputs": [
        {
          "internalType": "address",
          "name": "",
          "type": "address"
        }
      ],
      "stateMutability": "view",
      "type": "function"
    },
    {
      "inputs": [
        {
          "internalType": "address",
          "name": "candidate",
          "type": "address"
        }
      ],
      "name": "recordInterviewDelivery",
      "outputs": [],
      "stateMutability": "nonpayable",
      "type": "function"
    },
    {
      "inputs": [],
      "name": "totalPremiumsCollected",
      "outputs": [
        {
          "internalType": "uint256",
          "name": "",
          "type": "uint256"
        }
      ],
      "stateMutability": "view",
      "type": "function"
    },
    {
      "inputs": [],
      "name": "totalRefundsIssued",
      "outputs": [
        {
          "internalType": "uint256",
          "name": "",
          "type": "uint256"
        }
      ],
      "stateMutability": "view",
      "type": "function"
    },
    {
      "inputs": [
        {
          "internalType": "address",
          "name": "newAdmin",
          "type": "address"
        }
      ],
      "name": "updateAdmin",
      "outputs": [],
      "stateMutability": "nonpayable",
      "type": "function"
    },
    {
      "inputs": [
        {
          "internalType": "address",
          "name": "newTreasury",
          "type": "address"
        }
      ],
      "name": "updateTreasury",
      "outputs": [],
      "stateMutability": "nonpayable",
      "type": "function"
    },
    {
      "stateMutability": "payable",
      "type": "receive"
    }
  ],
  "bytecode": "0x610160604052348015610010575f5ffd5b506040516120d13803806120d183398101604081905261002f916101c7565b6040805180820182526011815270233432b734bc102832b936b4b9b9b4b7b760791b602080830191909152825180840190935260038352620312e360ec1b908301529061007c825f61014f565b6101205261008b81600161014f565b61014052815160208084019190912060e052815190820120610100524660a05261011760e05161010051604080517f8b73c3c69bb8fe3d512ecc4cf759cc79239f7b179b0ffacaa9a75d522b39400f60208201529081019290925260608201524660808201523060a08201525f9060c00160405160208183030381529060405280519060200120905090565b60805250503060c052600480546001600160a01b03929092166001600160a01b0319928316179055600580549091163317905561039e565b5f60208351101561016a5761016383610181565b905061017b565b81610175848261028c565b5060ff90505b92915050565b5f5f829050601f815111156101b4578260405163305a27a960e01b81526004016101ab9190610346565b60405180910390fd5b80516101bf8261037b565b179392505050565b5f602082840312156101d7575f5ffd5b81516001600160a01b03811681146101ed575f5ffd5b9392505050565b634e487b7160e01b5f52604160045260245ffd5b600181811c9082168061021c57607f821691505b60208210810361023a57634e487b7160e01b5f52602260045260245ffd5b50919050565b601f82111561028757805f5260205f20601f840160051c810160208510156102655750805b601f840160051c820191505b81811015610284575f8155600101610271565b50505b505050565b81516001600160401b038111156102a5576102a56101f4565b6102b9816102b38454610208565b84610240565b6020601f8211600181146102eb575f83156102d45750848201515b5f19600385901b1c1916600184901b178455610284565b5f84815260208120601f198516915b8281101561031a57878501518255602094850194600190920191016102fa565b508482101561033757868401515f19600387901b60f8161c191681555b50505050600190811b01905550565b602081525f82518060208401528060208501604085015e5f604082850101526040601f19601f83011684010191505092915050565b8051602080830151919081101561023a575f1960209190910360031b1b16919050565b60805160a05160c05160e051610100516101205161014051611cf16103e05f395f61115801525f61112701525f50505f50505f50505f50505f5050611cf15ff3fe608060405260043610610108575f3560e01c8063803db96d11610092578063be37822811610062578063be378228146102e7578063be5c8f44146102fc578063e2f273bd14610316578063f40e847114610335578063f851a4401461036b575f5ffd5b8063803db96d1461023757806384b0196e1461026e578063ad026ae514610295578063b5545a3c146102d3575f5ffd5b80633dadde20116100d85780633dadde2014610185578063685cae0e1461019a5780636f9d75cd146101b9578063771aceef146101ea5780637f51bb1f14610218575f5ffd5b8063248d734b146101135780632601e6ec1461013c578063312d2bf814610151578063388d2d1414610166575f5ffd5b3661010f57005b5f5ffd5b34801561011e575f5ffd5b5061012962278d0081565b6040519081526020015b60405180910390f35b348015610147575f5ffd5b5061012960075481565b61016461015f3660046115ec565b61038a565b005b348015610171575f5ffd5b506101646101803660046116cc565b6106cd565b348015610190575f5ffd5b5061012960065481565b3480156101a5575f5ffd5b506101296101b43660046116e5565b610885565b3480156101c4575f5ffd5b506101d86101d33660046116cc565b610905565b60405161013396959493929190611786565b3480156101f5575f5ffd5b506006546007544760408051938452602084019290925290820152606001610133565b348015610223575f5ffd5b506101646102323660046116cc565b6109fb565b348015610242575f5ffd5b50600454610256906001600160a01b031681565b6040516001600160a01b039091168152602001610133565b348015610279575f5ffd5b50610282610a63565b6040516101339796959493929190611803565b3480156102a0575f5ffd5b506102c36102af3660046116cc565b60036020525f908152604090205460ff1681565b6040519015158152602001610133565b3480156102de575f5ffd5b50610164610aa5565b3480156102f2575f5ffd5b506101296101f481565b348015610307575f5ffd5b50610129662386f26fc1000081565b348015610321575f5ffd5b506101646103303660046116cc565b610d2e565b348015610340575f5ffd5b5061035461034f3660046116cc565b610d96565b6040516101339b9a99989796959493929190611872565b348015610376575f5ffd5b50600554610256906001600160a01b031681565b662386f26fc100003410156103d85760405162461bcd60e51b815260206004820152600f60248201526e5072656d69756d20746f6f206c6f7760881b60448201526064015b60405180910390fd5b600181101580156103ea575060058111155b6104275760405162461bcd60e51b815260206004820152600e60248201526d125b9d985b1a59081d185c99d95d60921b60448201526064016103cf565b335f9081526003602052604090205460ff16156104865760405162461bcd60e51b815260206004820152601c60248201527f416c7265616479206861732061637469766520696e737572616e63650000000060448201526064016103cf565b60408051610160810182523381523460208201529081016104ae6104a988611964565b610e83565b81526020016104bf6104a987611964565b815260200184848080601f0160208091040260200160405190810160405280939291908181526020018383808284375f9201829052509385525050506020820184905260408201819052606090910190815260200142815260200162278d00426105299190611a41565b81525f60209182018190523381526002808352604091829020845181546001600160a01b0319166001600160a01b039091161781559284015160018401559083015190820155606082015160038201556080820151600482019061058d9082611acf565b5060a0820151600582015560c0820151600682015560e082015160078201805460ff191660018360048111156105c5576105c5611730565b02179055506101008201516008820155610120820151600982015561014090910151600a90910155335f908152600260208190526040909120015461060990610ee9565b335f9081526002602052604090206003015461062490610ee9565b335f908152600260208190526040909120015461064090610f53565b335f9081526002602052604090206003015461065b90610f53565b335f908152600360205260408120805460ff1916600117905560068054349290610686908490611a41565b9091555050604080513481526020810183905233917f6ffa16577812aa2d628f78a2847801acec3dae55a5166ccdddd400f78e1456a7910160405180910390a25050505050565b6005546001600160a01b031633146107185760405162461bcd60e51b815260206004820152600e60248201526d139bdd08185d5d1a1bdc9a5e995960921b60448201526064016103cf565b6001600160a01b0381165f90815260026020526040812090600782015460ff16600481111561074957610749611730565b148061076d57506001600782015460ff16600481111561076b5761076b611730565b145b6107a65760405162461bcd60e51b815260206004820152600a6024820152694e6f742061637469766560b01b60448201526064016103cf565b80600901544211156107ea5760405162461bcd60e51b815260206004820152600d60248201526c13dc99195c88195e1c1a5c9959609a1b60448201526064016103cf565b600681018054905f6107fb83611b8a565b909155505060078101805460ff19166001179055600681015460058201546001600160a01b038416917f5a6eb94e2b4ee21ad071c8c5d353bf307e558a4902aff778be67303490560d5091610851908290611ba2565b6040805192835260208301919091520160405180910390a280600501548160060154106108815761088182610f91565b5050565b6001600160a01b038083165f8181526002602052604081208054919390929116146108dd5760405162461bcd60e51b815260206004820152600860248201526727379037b93232b960c11b60448201526064016103cf565b5f6108ea6104a985611964565b90506108fa8183600201546110d8565b925050505b92915050565b5f5f5f5f5f60605f60025f896001600160a01b03166001600160a01b031681526020019081526020015f209050806007015f9054906101000a900460ff1681600101548260060154836005015484600901548560040180805461096790611a54565b80601f016020809104026020016040519081016040528092919081815260200182805461099390611a54565b80156109de5780601f106109b5576101008083540402835291602001916109de565b820191905f5260205f20905b8154815290600101906020018083116109c157829003601f168201915b505050505090509650965096509650965096505091939550919395565b6005546001600160a01b03163314610a415760405162461bcd60e51b81526020600482015260096024820152682737ba1030b236b4b760b91b60448201526064016103cf565b600480546001600160a01b0319166001600160a01b0392909216919091179055565b5f6060805f5f5f6060610a74611120565b610a7c611151565b604080515f80825260208201909252600f60f81b9b939a50919850469750309650945092509050565b335f818152600260205260409020805490916001600160a01b0390911614610b005760405162461bcd60e51b815260206004820152600e60248201526d139bc81bdc99195c88199bdd5b9960921b60448201526064016103cf565b5f600782015460ff166004811115610b1a57610b1a611730565b1480610b3e57506001600782015460ff166004811115610b3c57610b3c611730565b145b610b8a5760405162461bcd60e51b815260206004820152601760248201527f4e6f7420656c696769626c6520666f7220726566756e6400000000000000000060448201526064016103cf565b80600901544211610bd25760405162461bcd60e51b815260206004820152601260248201527115da5b991bddc81b9bdd08195e1c1a5c995960721b60448201526064016103cf565b5f81600601545f03610be957506001810154610c23565b5f82600601548360050154610bfe9190611ba2565b90508260050154818460010154610c159190611bb5565b610c1f9190611bcc565b9150505b6007820180546003919060ff19166001830217905550335f908152600360205260408120805460ff1916905560078054839290610c61908490611a41565b90915550506040515f90339083908381818185875af1925050503d805f8114610ca5576040519150601f19603f3d011682016040523d82523d5f602084013e610caa565b606091505b5050905080610cf45760405162461bcd60e51b81526020600482015260166024820152751499599d5b99081d1c985b9cd9995c8819985a5b195960521b60448201526064016103cf565b60405182815233907f3123f0e0472bc9c8f1d137578255c05a4b32a7c9ab5f053a15df3eed8b5181b99060200160405180910390a2505050565b6005546001600160a01b03163314610d745760405162461bcd60e51b81526020600482015260096024820152682737ba1030b236b4b760b91b60448201526064016103cf565b600580546001600160a01b0319166001600160a01b0392909216919091179055565b600260208190525f9182526040909120805460018201549282015460038301546004840180546001600160a01b0390941695949293919291610dd790611a54565b80601f0160208091040260200160405190810160405280929190818152602001828054610e0390611a54565b8015610e4e5780601f10610e2557610100808354040283529160200191610e4e565b820191905f5260205f20905b815481529060010190602001808311610e3157829003601f168201915b50505060058401546006850154600786015460088701546009880154600a909801549697939692955060ff909116935091908b565b5f610e938260400151600461117e565b60408051608080820183525f808352602080840182905283850191909152606092830183905283519182018452855182528086015160ff169082015260049281019290925280840151908201526108ff906111b1565b604051631974142760e21b81526004810182905230602482015273ea30c4b8b44078bbf8a6ef5b9f1ec1626c7848d9906365d0509c906044015b5f604051808303815f87803b158015610f3a575f5ffd5b505af1158015610f4c573d5f5f3e3d5ffd5b5050505050565b604051631974142760e21b81526004810182905233602482015273ea30c4b8b44078bbf8a6ef5b9f1ec1626c7848d9906365d0509c90604401610f23565b6001600160a01b0381165f90815260026020818152604080842060078101805460ff19908116909517905542600a820155600390925283208054909216909155600181015490919061271090610fea906101f490611bb5565b610ff49190611bcc565b6004546040519192505f916001600160a01b039091169083908381818185875af1925050503d805f8114611043576040519150601f19603f3d011682016040523d82523d5f602084013e611048565b606091505b505090508061108f5760405162461bcd60e51b8152602060048201526013602482015272119959481d1c985b9cd9995c8819985a5b1959606a1b60448201526064016103cf565b836001600160a01b03167fd07fb89e89d73d85eadb36485834f08242def5cf10ef157a3305d08c44273e28836040516110ca91815260200190565b60405180910390a250505050565b5f6110e28361122c565b6110f2576110ef5f611235565b92505b6110fb8261122c565b61110b576111085f611235565b91505b611119600484846012611240565b9392505050565b606061114c7f00000000000000000000000000000000000000000000000000000000000000005f6112e1565b905090565b606061114c7f000000000000000000000000000000000000000000000000000000000000000060016112e1565b8060ff168260ff1614610881576040516367cf307160e01b815260ff8084166004830152821660248201526044016103cf565b6040516313fce3b160e11b81525f9073ea30c4b8b44078bbf8a6ef5b9f1ec1626c7848d9906327f9c762906111ec9085903390600401611beb565b6020604051808303815f875af1158015611208573d5f5f3e3d5ffd5b505050506040513d601f19601f820116820180604052508101906108ff9190611c42565b5f8115156108ff565b5f6108ff825f61138a565b5f73ea30c4b8b44078bbf8a6ef5b9f1ec1626c7848d9631888debd868461126788886113a0565b604080515f815260208101918290526001600160e01b031960e087901b169091526112989392919060248101611c59565b6020604051808303815f875af11580156112b4573d5f5f3e3d5ffd5b505050506040513d601f19601f820116820180604052508101906112d89190611c42565b95945050505050565b606060ff83146112fb576112f48361140d565b90506108ff565b81805461130790611a54565b80601f016020809104026020016040519081016040528092919081815260200182805461133390611a54565b801561137e5780601f106113555761010080835404028352916020019161137e565b820191905f5260205f20905b81548152906001019060200180831161136157829003601f168201915b505050505090506108ff565b5f5f6113988460048561144a565b949350505050565b60408051600280825260608083018452925f929190602083019080368337019050509050835f1c815f815181106113d9576113d9611ca7565b602002602001018181525050825f1c816001815181106113fb576113fb611ca7565b60209081029190910101529392505050565b60605f611419836114ef565b6040805160208082528183019092529192505f91906020820181803683375050509182525060208101929092525090565b604080515f8082526020820190925273ea30c4b8b44078bbf8a6ef5b9f1ec1626c7848d990631888debd908590601a90611490898960ff1661148b8a611516565b61154b565b6040518563ffffffff1660e01b81526004016114af9493929190611c59565b6020604051808303815f875af11580156114cb573d5f5f3e3d5ffd5b505050506040513d601f19601f820116820180604052508101906113989190611c42565b5f60ff8216601f8111156108ff57604051632cd44ac360e21b815260040160405180910390fd5b5f5f8260030b1215611541576040516311ead17f60e31b8152600383900b60048201526024016103cf565b5063ffffffff1690565b604080516003808252608082019092526060915f919060208201848036833701905050905084815f8151811061158357611583611ca7565b60200260200101818152505083816001815181106115a3576115a3611ca7565b60200260200101818152505082816002815181106115c3576115c3611ca7565b6020908102919091010152949350505050565b5f608082840312156115e6575f5ffd5b50919050565b5f5f5f5f5f60808688031215611600575f5ffd5b853567ffffffffffffffff811115611616575f5ffd5b611622888289016115d6565b955050602086013567ffffffffffffffff81111561163e575f5ffd5b61164a888289016115d6565b945050604086013567ffffffffffffffff811115611666575f5ffd5b8601601f81018813611676575f5ffd5b803567ffffffffffffffff81111561168c575f5ffd5b88602082840101111561169d575f5ffd5b959894975060200195606001359392505050565b80356001600160a01b03811681146116c7575f5ffd5b919050565b5f602082840312156116dc575f5ffd5b611119826116b1565b5f5f604083850312156116f6575f5ffd5b6116ff836116b1565b9150602083013567ffffffffffffffff81111561171a575f5ffd5b611726858286016115d6565b9150509250929050565b634e487b7160e01b5f52602160045260245ffd5b6005811061175457611754611730565b9052565b5f81518084528060208401602086015e5f602082860101526020601f19601f83011685010191505092915050565b6117908188611744565b85602082015284604082015283606082015282608082015260c060a08201525f6117bd60c0830184611758565b98975050505050505050565b5f8151808452602084019350602083015f5b828110156117f95781518652602095860195909101906001016117db565b5093949350505050565b60ff60f81b8816815260e060208201525f61182160e0830189611758565b82810360408401526118338189611758565b606084018890526001600160a01b038716608085015260a0840186905283810360c0850152905061186481856117c9565b9a9950505050505050505050565b60018060a01b038c1681528a602082015289604082015288606082015261016060808201525f6118a661016083018a611758565b90508760a08301528660c08301526118c160e0830187611744565b8461010083015283610120830152826101408301529c9b505050505050505050505050565b634e487b7160e01b5f52604160045260245ffd5b6040516080810167ffffffffffffffff8111828210171561191d5761191d6118e6565b60405290565b604051601f8201601f1916810167ffffffffffffffff8111828210171561194c5761194c6118e6565b604052919050565b803560ff811681146116c7575f5ffd5b5f60808236031215611974575f5ffd5b61197c6118fa565b8235815261198c60208401611954565b602082015261199d60408401611954565b6040820152606083013567ffffffffffffffff8111156119bb575f5ffd5b830136601f8201126119cb575f5ffd5b803567ffffffffffffffff8111156119e5576119e56118e6565b6119f8601f8201601f1916602001611923565b818152366020838501011115611a0c575f5ffd5b816020840160208301375f9181016020019190915260608301525092915050565b634e487b7160e01b5f52601160045260245ffd5b808201808211156108ff576108ff611a2d565b600181811c90821680611a6857607f821691505b6020821081036115e657634e487b7160e01b5f52602260045260245ffd5b601f821115611aca57805f5260205f20601f840160051c81016020851015611aab5750805b601f840160051c820191505b81811015610f4c575f8155600101611ab7565b505050565b815167ffffffffffffffff811115611ae957611ae96118e6565b611afd81611af78454611a54565b84611a86565b6020601f821160018114611b2f575f8315611b185750848201515b5f19600385901b1c1916600184901b178455610f4c565b5f84815260208120601f198516915b82811015611b5e5787850151825560209485019460019092019101611b3e565b5084821015611b7b57868401515f19600387901b60f8161c191681555b50505050600190811b01905550565b5f60018201611b9b57611b9b611a2d565b5060010190565b818103818111156108ff576108ff611a2d565b80820281158282048414176108ff576108ff611a2d565b5f82611be657634e487b7160e01b5f52601260045260245ffd5b500490565b604081528251604082015260ff602084015116606082015260ff60408401511660808201525f6060840151608060a0840152611c2a60c0840182611758565b91505060018060a01b03831660208301529392505050565b5f60208284031215611c52575f5ffd5b5051919050565b60ff851681525f60208510611c7057611c70611730565b84602083015260806040830152611c8a60808301856117c9565b8281036060840152611c9c81856117c9565b979650505050505050565b634e487b7160e01b5f52603260045260245ffdfea2646970667358221220b351d0a5fefccd24cd21d014fc788056f681c0015f992d5f3ed36ffe8913112c64736f6c634300081c0033",
  "linkReferences": {},
  "deployedLinkReferences": {}
}