{
  "_format": "hh-sol-artifact-1",
  "contractName": "CipherRegistry",
  "sourceName": "contracts/CipherRegistry.sol",
  "abi": [
    {
      "inputs": [],
      "stateMutability": "nonpayable",
      "type": "constructor"
    },
    {
      "anonymous": false,
      "inputs": [
        {
          "indexed": true,
          "internalType": "address",
          "name": "newAdmin",
          "type": "address"
        }
      ],
      "name": "AdminTransferCompleted",
      "type": "event"
    },
    {
      "anonymous": false,
      "inputs": [
        {
          "indexed": true,
          "internalType": "address",
          "name": "newAdmin",
          "type": "address"
        }
      ],
      "name": "AdminTransferInitiated",
      "type": "event"
    },
    {
      "anonymous": false,
      "inputs": [
        {
          "indexed": true,
          "internalType": "bytes32",
          "name": "key",
          "type": "bytes32"
        }
      ],
      "name": "ContractPaused",
      "type": "event"
    },
    {
      "anonymous": false,
      "inputs": [
        {
          "indexed": true,
          "internalType": "bytes32",
          "name": "key",
          "type": "bytes32"
        },
        {
          "indexed": false,
          "internalType": "address",
          "name": "contractAddress",
          "type": "address"
        },
        {
          "indexed": false,
          "internalType": "string",
          "name": "name",
          "type": "string"
        },
        {
          "indexed": false,
          "internalType": "string",
          "name": "version",
          "type": "string"
        }
      ],
      "name": "ContractRegistered",
      "type": "event"
    },
    {
      "anonymous": false,
      "inputs": [
        {
          "indexed": true,
          "internalType": "bytes32",
          "name": "key",
          "type": "bytes32"
        }
      ],
      "name": "ContractUnpaused",
      "type": "event"
    },
    {
      "anonymous": false,
      "inputs": [
        {
          "indexed": true,
          "internalType": "bytes32",
          "name": "key",
          "type": "bytes32"
        },
        {
          "indexed": false,
          "internalType": "address",
          "name": "oldAddress",
          "type": "address"
        },
        {
          "indexed": false,
          "internalType": "address",
          "name": "newAddress",
          "type": "address"
        },
        {
          "indexed": false,
          "internalType": "string",
          "name": "newVersion",
          "type": "string"
        }
      ],
      "name": "ContractUpdated",
      "type": "event"
    },
    {
      "anonymous": false,
      "inputs": [
        {
          "indexed": true,
          "internalType": "address",
          "name": "by",
          "type": "address"
        }
      ],
      "name": "ProtocolPaused",
      "type": "event"
    },
    {
      "anonymous": false,
      "inputs": [
        {
          "indexed": true,
          "internalType": "address",
          "name": "by",
          "type": "address"
        }
      ],
      "name": "ProtocolUnpaused",
      "type": "event"
    },
    {
      "inputs": [],
      "name": "acceptAdminTransfer",
      "outputs": [],
      "stateMutability": "nonpayable",
      "type": "function"
    },
    {
      "inputs": [],
      "name": "admin",
      "outputs": [
        {
          "internalType": "address",
          "name": "",
          "type": "address"
        }
      ],
      "stateMutability": "view",
      "type": "function"
    },
    {
      "inputs": [
        {
          "internalType": "uint256",
          "name": "",
          "type": "uint256"
        }
      ],
      "name": "contractKeys",
      "outputs": [
        {
          "internalType": "bytes32",
          "name": "",
          "type": "bytes32"
        }
      ],
      "stateMutability": "view",
      "type": "function"
    },
    {
      "inputs": [
        {
          "internalType": "bytes32",
          "name": "",
          "type": "bytes32"
        }
      ],
      "name": "contracts",
      "outputs": [
        {
          "internalType": "address",
          "name": "contractAddress",
          "type": "address"
        },
        {
          "internalType": "string",
          "name": "name",
          "type": "string"
        },
        {
          "internalType": "string",
          "name": "version",
          "type": "string"
        },
        {
          "internalType": "bool",
          "name": "active",
          "type": "bool"
        },
        {
          "internalType": "bool",
          "name": "paused",
          "type": "bool"
        },
        {
          "internalType": "uint256",
          "name": "deployedAt",
          "type": "uint256"
        },
        {
          "internalType": "uint256",
          "name": "updatedAt",
          "type": "uint256"
        }
      ],
      "stateMutability": "view",
      "type": "function"
    },
    {
      "inputs": [
        {
          "internalType": "string",
          "name": "name",
          "type": "string"
        }
      ],
      "name": "getAddress",
      "outputs": [
        {
          "internalType": "address",
          "name": "",
          "type": "address"
        }
      ],
      "stateMutability": "view",
      "type": "function"
    },
    {
      "inputs": [],
      "name": "getAllContracts",
      "outputs": [
        {
          "internalType": "string[]",
          "name": "names",
          "type": "string[]"
        },
        {
          "internalType": "address[]",
          "name": "addresses",
          "type": "address[]"
        },
        {
          "internalType": "bool[]",
          "name": "paused",
          "type": "bool[]"
        }
      ],
      "stateMutability": "view",
      "type": "function"
    },
    {
      "inputs": [],
      "name": "getContractCount",
      "outputs": [
        {
          "internalType": "uint256",
          "name": "",
          "type": "uint256"
        }
      ],
      "stateMutability": "view",
      "type": "function"
    },
    {
      "inputs": [
        {
          "internalType": "string",
          "name": "name",
          "type": "string"
        }
      ],
      "name": "getEntry",
      "outputs": [
        {
          "internalType": "address",
          "name": "contractAddress",
          "type": "address"
        },
        {
          "internalType": "string",
          "name": "version",
          "type": "string"
        },
        {
          "internalType": "bool",
          "name": "active",
          "type": "bool"
        },
        {
          "internalType": "bool",
          "name": "paused",
          "type": "bool"
        },
        {
          "internalType": "uint256",
          "name": "deployedAt",
          "type": "uint256"
        }
      ],
      "stateMutability": "view",
      "type": "function"
    },
    {
      "inputs": [
        {
          "internalType": "address",
          "name": "newAdmin",
          "type": "address"
        }
      ],
      "name": "initiateAdminTransfer",
      "outputs": [],
      "stateMutability": "nonpayable",
      "type": "function"
    },
    {
      "inputs": [
        {
          "internalType": "string",
          "name": "name",
          "type": "string"
        }
      ],
      "name": "pauseContract",
      "outputs": [],
      "stateMutability": "nonpayable",
      "type": "function"
    },
    {
      "inputs": [],
      "name": "pauseProtocol",
      "outputs": [],
      "stateMutability": "nonpayable",
      "type": "function"
    },
    {
      "inputs": [],
      "name": "pendingAdmin",
      "outputs": [
        {
          "internalType": "address",
          "name": "",
          "type": "address"
        }
      ],
      "stateMutability": "view",
      "type": "function"
    },
    {
      "inputs": [],
      "name": "protocolPaused",
      "outputs": [
        {
          "internalType": "bool",
          "name": "",
          "type": "bool"
        }
      ],
      "stateMutability": "view",
      "type": "function"
    },
    {
      "inputs": [
        {
          "internalType": "string",
          "name": "name",
          "type": "string"
        },
        {
          "internalType": "string",
          "name": "version",
          "type": "string"
        },
        {
          "internalType": "address",
          "name": "contractAddress",
          "type": "address"
        }
      ],
      "name": "register",
      "outputs": [],
      "stateMutability": "nonpayable",
      "type": "function"
    },
    {
      "inputs": [
        {
          "internalType": "string",
          "name": "name",
          "type": "string"
        }
      ],
      "name": "unpauseContract",
      "outputs": [],
      "stateMutability": "nonpayable",
      "type": "function"
    },
    {
      "inputs": [],
      "name": "unpauseProtocol",
      "outputs": [],
      "stateMutability": "nonpayable",
      "type": "function"
    },
    {
      "inputs": [
        {
          "internalType": "string",
          "name": "name",
          "type": "string"
        },
        {
          "internalType": "string",
          "name": "newVersion",
          "type": "string"
        },
        {
          "internalType": "address",
          "name": "newAddress",
          "type": "address"
        }
      ],
      "name": "upgrade",
      "outputs": [],
      "stateMutability": "nonpayable",
      "type": "function"
    }
  ],
  "bytecode": "0x6080604052348015600e575f5ffd5b5060028054610100600160a81b0319163361010002179055611579806100335f395ff3fe608060405234801561000f575f5ffd5b5060043610610106575f3560e01c8063ab6c12df1161009e578063dbf624891161006e578063dbf6248914610224578063de6bd6871461022c578063ec56a3731461023f578063f851a44014610265578063f93b6be51461027d575f5ffd5b8063ab6c12df146101c7578063b319c9e4146101da578063bf40fac1146101fe578063d3a1e7f814610211575f5ffd5b80635664d69c116100d95780635664d69c1461017c578063672cb02e1461018f5780639399869d146101a2578063a5e77952146101b4575f5ffd5b806317aee51f1461010a57806318d3ce96146101145780632678224714610134578063425fad581461015f575b5f5ffd5b610112610285565b005b61011c610343565b60405161012b93929190610fa0565b60405180910390f35b600354610147906001600160a01b031681565b6040516001600160a01b03909116815260200161012b565b60025461016c9060ff1681565b604051901515815260200161012b565b61011261018a3660046110bd565b61058c565b61011261019d36600461113d565b6107f6565b6001545b60405190815260200161012b565b6101126101c23660046110bd565b610889565b6101126101d536600461117c565b6109c7565b6101ed6101e836600461113d565b610a3f565b60405161012b95949392919061119c565b61014761020c36600461113d565b610b3f565b61011261021f36600461113d565b610c64565b610112610cf3565b6101a661023a3660046111dc565b610d5b565b61025261024d3660046111dc565b610d7a565b60405161012b97969594939291906111f3565b6002546101479061010090046001600160a01b031681565b610112610ed1565b6003546001600160a01b031633146102d85760405162461bcd60e51b81526020600482015260116024820152702737ba103832b73234b7339030b236b4b760791b60448201526064015b60405180910390fd5b6003805460028054610100600160a81b0319166101006001600160a01b03808516820292909217928390556001600160a01b0319909316909355604051919004909116907fe6aa55180442bd9b002c0b9ddf8ebf164046b2d06d4af4cfddd92b4ba770469c905f90a2565b600154606090819081908067ffffffffffffffff8111156103665761036661124f565b60405190808252806020026020018201604052801561039957816020015b60608152602001906001900390816103845790505b5093508067ffffffffffffffff8111156103b5576103b561124f565b6040519080825280602002602001820160405280156103de578160200160208202803683370190505b5092508067ffffffffffffffff8111156103fa576103fa61124f565b604051908082528060200260200182016040528015610423578160200160208202803683370190505b5091505f5b81811015610585575f5f5f6001848154811061044657610446611263565b905f5260205f20015481526020019081526020015f20905080600101805461046d90611277565b80601f016020809104026020016040519081016040528092919081815260200182805461049990611277565b80156104e45780601f106104bb576101008083540402835291602001916104e4565b820191905f5260205f20905b8154815290600101906020018083116104c757829003601f168201915b50505050508683815181106104fb576104fb611263565b6020908102919091010152805485516001600160a01b039091169086908490811061052857610528611263565b60200260200101906001600160a01b031690816001600160a01b0316815250508060030160019054906101000a900460ff1684838151811061056c5761056c611263565b9115156020928302919091019091015250600101610428565b5050909192565b60025461010090046001600160a01b031633146105bb5760405162461bcd60e51b81526004016102cf906112af565b6001600160a01b0381166106005760405162461bcd60e51b815260206004820152600c60248201526b5a65726f206164647265737360a01b60448201526064016102cf565b5f85856040516106119291906112d2565b60408051918290039091205f8181526020819052919091206003015490915060ff1661066b576001805480820182555f919091527fb10e2d527612073b26eecdfd717e6a320cf44b4afac2b0732d9fcbe2b7fa0cf6018190555b6040518060e00160405280836001600160a01b0316815260200187878080601f0160208091040260200160405190810160405280939291908181526020018383808284375f92019190915250505090825250604080516020601f8801819004810282018101909252868152918101919087908790819084018382808284375f9201829052509385525050600160208085018290526040808601859052426060870181905260809096019590955286845283815293909220845181546001600160a01b0319166001600160a01b03909116178155928401519183019161075191508261132d565b5060408201516002820190610766908261132d565b506060820151600382018054608085015115156101000261ff00199315159390931661ffff199091161791909117905560a0820151600482015560c09091015160059091015560405181907fa681657c7726756338543b351738d7d71b620bb6d47ee28937325e73528c5997906107e69085908a908a908a908a90611410565b60405180910390a2505050505050565b60025461010090046001600160a01b031633146108255760405162461bcd60e51b81526004016102cf906112af565b5f82826040516108369291906112d2565b604080519182900382205f8181526020819052918220600301805461ff001916610100179055925082917f4cf90b636e4539a9341c6513390cb6aff7b351bb9ec91144501976b4c9854c879190a2505050565b60025461010090046001600160a01b031633146108b85760405162461bcd60e51b81526004016102cf906112af565b5f85856040516108c99291906112d2565b60408051918290039091205f8181526020819052919091206003015490915060ff166109315760405162461bcd60e51b815260206004820152601760248201527610dbdb9d1c9858dd081b9bdd081c9959da5cdd195c9959604a1b60448201526064016102cf565b5f81815260208190526040902080546001600160a01b038481166001600160a01b031983161783551690600201610969858783611453565b505f8281526020819052604090819020426005909101555182907ff7fa6494d55a23e93fe934ba4e270bb70b7496cf35174ec56b66716941ab6437906109b690849087908a908a9061150d565b60405180910390a250505050505050565b60025461010090046001600160a01b031633146109f65760405162461bcd60e51b81526004016102cf906112af565b600380546001600160a01b0319166001600160a01b0383169081179091556040517f2fb5538521366928bc98c0de88c1ec7fdcaa2adbd79124c4f3cc109bf67e238b905f90a250565b5f60605f5f5f5f8787604051610a569291906112d2565b60408051918290039091205f81815260208190529190912080546003820154600483015460028401805495965093946001600160a01b03909316939260ff8084169361010090041691908490610aab90611277565b80601f0160208091040260200160405190810160405280929190818152602001828054610ad790611277565b8015610b225780601f10610af957610100808354040283529160200191610b22565b820191905f5260205f20905b815481529060010190602001808311610b0557829003601f168201915b505050505093509650965096509650965050509295509295909350565b5f5f8383604051610b519291906112d2565b60408051918290039091205f81815260208190529190912060038101549192509060ff16610bbb5760405162461bcd60e51b815260206004820152601760248201527610dbdb9d1c9858dd081b9bdd081c9959da5cdd195c9959604a1b60448201526064016102cf565b6003810154610100900460ff1615610c0a5760405162461bcd60e51b815260206004820152601260248201527110dbdb9d1c9858dd081a5cc81c185d5cd95960721b60448201526064016102cf565b60025460ff1615610c525760405162461bcd60e51b8152602060048201526012602482015271141c9bdd1bd8dbdb081a5cc81c185d5cd95960721b60448201526064016102cf565b546001600160a01b0316949350505050565b60025461010090046001600160a01b03163314610c935760405162461bcd60e51b81526004016102cf906112af565b5f8282604051610ca49291906112d2565b604080519182900382205f8181526020819052918220600301805461ff0019169055925082917fc35445f7ca8b4e0b46d1aa200f89b43e4f7896adaa754c18e620ea065522546a9190a2505050565b60025461010090046001600160a01b03163314610d225760405162461bcd60e51b81526004016102cf906112af565b6002805460ff1916600117905560405133907f3fb8cabbd30f03312e3221b5b1c7ce132ca5d72cf36143a1d6d33b11ad4eba24905f90a2565b60018181548110610d6a575f80fd5b5f91825260209091200154905081565b5f60208190529081526040902080546001820180546001600160a01b039092169291610da590611277565b80601f0160208091040260200160405190810160405280929190818152602001828054610dd190611277565b8015610e1c5780601f10610df357610100808354040283529160200191610e1c565b820191905f5260205f20905b815481529060010190602001808311610dff57829003601f168201915b505050505090806002018054610e3190611277565b80601f0160208091040260200160405190810160405280929190818152602001828054610e5d90611277565b8015610ea85780601f10610e7f57610100808354040283529160200191610ea8565b820191905f5260205f20905b815481529060010190602001808311610e8b57829003601f168201915b50505060038401546004850154600590950154939460ff80831695610100909304169350915087565b60025461010090046001600160a01b03163314610f005760405162461bcd60e51b81526004016102cf906112af565b6002805460ff1916905560405133907f2d553fb579456929d17c4cf0dc43b2f2e8e5a8f917cadcc8a5f18e9c4010b75a905f90a2565b5f81518084528060208401602086015e5f602082860101526020601f19601f83011685010191505092915050565b5f8151808452602084019350602083015f5b82811015610f965781511515865260209586019590910190600101610f76565b5093949350505050565b5f606082016060835280865180835260808501915060808160051b8601019250602088015f5b82811015610ff757607f19878603018452610fe2858351610f36565b94506020938401939190910190600101610fc6565b5050505082810360208401528085518083526020830191506020870192505f5b8181101561103e5783516001600160a01b0316835260209384019390920191600101611017565b505083810360408501526110528186610f64565b979650505050505050565b5f5f83601f84011261106d575f5ffd5b50813567ffffffffffffffff811115611084575f5ffd5b60208301915083602082850101111561109b575f5ffd5b9250929050565b80356001600160a01b03811681146110b8575f5ffd5b919050565b5f5f5f5f5f606086880312156110d1575f5ffd5b853567ffffffffffffffff8111156110e7575f5ffd5b6110f38882890161105d565b909650945050602086013567ffffffffffffffff811115611112575f5ffd5b61111e8882890161105d565b90945092506111319050604087016110a2565b90509295509295909350565b5f5f6020838503121561114e575f5ffd5b823567ffffffffffffffff811115611164575f5ffd5b6111708582860161105d565b90969095509350505050565b5f6020828403121561118c575f5ffd5b611195826110a2565b9392505050565b6001600160a01b038616815260a0602082018190525f906111bf90830187610f36565b941515604083015250911515606083015260809091015292915050565b5f602082840312156111ec575f5ffd5b5035919050565b6001600160a01b038816815260e0602082018190525f9061121690830189610f36565b82810360408401526112288189610f36565b96151560608401525050921515608084015260a083019190915260c0909101529392505050565b634e487b7160e01b5f52604160045260245ffd5b634e487b7160e01b5f52603260045260245ffd5b600181811c9082168061128b57607f821691505b6020821081036112a957634e487b7160e01b5f52602260045260245ffd5b50919050565b6020808252600990820152682737ba1030b236b4b760b91b604082015260600190565b818382375f9101908152919050565b601f82111561132857805f5260205f20601f840160051c810160208510156113065750805b601f840160051c820191505b81811015611325575f8155600101611312565b50505b505050565b815167ffffffffffffffff8111156113475761134761124f565b61135b816113558454611277565b846112e1565b6020601f82116001811461138d575f83156113765750848201515b5f19600385901b1c1916600184901b178455611325565b5f84815260208120601f198516915b828110156113bc578785015182556020948501946001909201910161139c565b50848210156113d957868401515f19600387901b60f8161c191681555b50505050600190811b01905550565b81835281816020850137505f828201602090810191909152601f909101601f19169091010190565b6001600160a01b03861681526060602082018190525f9061143490830186886113e8565b82810360408401526114478185876113e8565b98975050505050505050565b67ffffffffffffffff83111561146b5761146b61124f565b61147f836114798354611277565b836112e1565b5f601f8411600181146114b0575f85156114995750838201355b5f19600387901b1c1916600186901b178355611325565b5f83815260208120601f198716915b828110156114df57868501358255602094850194600190920191016114bf565b50868210156114fb575f1960f88860031b161c19848701351681555b505060018560011b0183555050505050565b6001600160a01b038581168252841660208201526060604082018190525f9061153990830184866113e8565b969550505050505056fea26469706673582212202167eee4f8ca4cb409a92234e7c172470c4eca672d2472d6b34f8960d4409d4b64736f6c634300081c0033",
  "linkReferences": {},
  "deployedLinkReferences": {}
}