{
  "_format": "hh-sol-artifact-1",
  "contractName": "CipherCV",
  "sourceName": "contracts/CipherCV.sol",
  "abi": [
    {
      "inputs": [],
      "name": "ECDSAInvalidSignature",
      "type": "error"
    },
    {
      "inputs": [
        {
          "internalType": "uint256",
          "name": "length",
          "type": "uint256"
        }
      ],
      "name": "ECDSAInvalidSignatureLength",
      "type": "error"
    },
    {
      "inputs": [
        {
          "internalType": "bytes32",
          "name": "s",
          "type": "bytes32"
        }
      ],
      "name": "ECDSAInvalidSignatureS",
      "type": "error"
    },
    {
      "inputs": [
        {
          "internalType": "uint8",
          "name": "got",
          "type": "uint8"
        },
        {
          "internalType": "uint8",
          "name": "expected",
          "type": "uint8"
        }
      ],
      "name": "InvalidEncryptedInput",
      "type": "error"
    },
    {
      "inputs": [],
      "name": "InvalidShortString",
      "type": "error"
    },
    {
      "inputs": [
        {
          "internalType": "int32",
          "name": "value",
          "type": "int32"
        }
      ],
      "name": "SecurityZoneOutOfBounds",
      "type": "error"
    },
    {
      "inputs": [],
      "name": "SignerNotMessageSender",
      "type": "error"
    },
    {
      "inputs": [],
      "name": "SignerNotOwner",
      "type": "error"
    },
    {
      "inputs": [
        {
          "internalType": "string",
          "name": "str",
          "type": "string"
        }
      ],
      "name": "StringTooLong",
      "type": "error"
    },
    {
      "anonymous": false,
      "inputs": [
        {
          "indexed": true,
          "internalType": "address",
          "name": "candidate",
          "type": "address"
        },
        {
          "indexed": false,
          "internalType": "uint256",
          "name": "timestamp",
          "type": "uint256"
        }
      ],
      "name": "CandidateProfileSubmitted",
      "type": "event"
    },
    {
      "anonymous": false,
      "inputs": [
        {
          "indexed": true,
          "internalType": "bytes32",
          "name": "matchId",
          "type": "bytes32"
        },
        {
          "indexed": true,
          "internalType": "address",
          "name": "party",
          "type": "address"
        },
        {
          "indexed": false,
          "internalType": "string",
          "name": "role",
          "type": "string"
        }
      ],
      "name": "ConsentGiven",
      "type": "event"
    },
    {
      "anonymous": false,
      "inputs": [],
      "name": "EIP712DomainChanged",
      "type": "event"
    },
    {
      "anonymous": false,
      "inputs": [
        {
          "indexed": true,
          "internalType": "address",
          "name": "employer",
          "type": "address"
        },
        {
          "indexed": false,
          "internalType": "uint256",
          "name": "timestamp",
          "type": "uint256"
        }
      ],
      "name": "JobPostingSubmitted",
      "type": "event"
    },
    {
      "anonymous": false,
      "inputs": [
        {
          "indexed": true,
          "internalType": "bytes32",
          "name": "matchId",
          "type": "bytes32"
        },
        {
          "indexed": true,
          "internalType": "address",
          "name": "candidate",
          "type": "address"
        },
        {
          "indexed": true,
          "internalType": "address",
          "name": "employer",
          "type": "address"
        }
      ],
      "name": "MatchComputed",
      "type": "event"
    },
    {
      "inputs": [
        {
          "internalType": "address",
          "name": "employerAddr",
          "type": "address"
        }
      ],
      "name": "candidateConsent",
      "outputs": [],
      "stateMutability": "nonpayable",
      "type": "function"
    },
    {
      "inputs": [
        {
          "internalType": "uint256",
          "name": "",
          "type": "uint256"
        }
      ],
      "name": "candidateList",
      "outputs": [
        {
          "internalType": "address",
          "name": "",
          "type": "address"
        }
      ],
      "stateMutability": "view",
      "type": "function"
    },
    {
      "inputs": [
        {
          "internalType": "address",
          "name": "",
          "type": "address"
        }
      ],
      "name": "candidateProfiles",
      "outputs": [
        {
          "internalType": "euint32",
          "name": "minSalary",
          "type": "bytes32"
        },
        {
          "internalType": "euint32",
          "name": "maxSalary",
          "type": "bytes32"
        },
        {
          "internalType": "euint32",
          "name": "experienceYears",
          "type": "bytes32"
        },
        {
          "internalType": "euint32",
          "name": "skillScore",
          "type": "bytes32"
        },
        {
          "internalType": "bool",
          "name": "submitted",
          "type": "bool"
        },
        {
          "internalType": "uint256",
          "name": "submittedAt",
          "type": "uint256"
        }
      ],
      "stateMutability": "view",
      "type": "function"
    },
    {
      "inputs": [
        {
          "internalType": "address",
          "name": "candidateAddr",
          "type": "address"
        },
        {
          "internalType": "address",
          "name": "employerAddr",
          "type": "address"
        }
      ],
      "name": "computeMatch",
      "outputs": [],
      "stateMutability": "nonpayable",
      "type": "function"
    },
    {
      "inputs": [],
      "name": "eip712Domain",
      "outputs": [
        {
          "internalType": "bytes1",
          "name": "fields",
          "type": "bytes1"
        },
        {
          "internalType": "string",
          "name": "name",
          "type": "string"
        },
        {
          "internalType": "string",
          "name": "version",
          "type": "string"
        },
        {
          "internalType": "uint256",
          "name": "chainId",
          "type": "uint256"
        },
        {
          "internalType": "address",
          "name": "verifyingContract",
          "type": "address"
        },
        {
          "internalType": "bytes32",
          "name": "salt",
          "type": "bytes32"
        },
        {
          "internalType": "uint256[]",
          "name": "extensions",
          "type": "uint256[]"
        }
      ],
      "stateMutability": "view",
      "type": "function"
    },
    {
      "inputs": [
        {
          "internalType": "address",
          "name": "candidateAddr",
          "type": "address"
        }
      ],
      "name": "employerConsent",
      "outputs": [],
      "stateMutability": "nonpayable",
      "type": "function"
    },
    {
      "inputs": [
        {
          "internalType": "uint256",
          "name": "",
          "type": "uint256"
        }
      ],
      "name": "employerList",
      "outputs": [
        {
          "internalType": "address",
          "name": "",
          "type": "address"
        }
      ],
      "stateMutability": "view",
      "type": "function"
    },
    {
      "inputs": [],
      "name": "getCandidateCount",
      "outputs": [
        {
          "internalType": "uint256",
          "name": "",
          "type": "uint256"
        }
      ],
      "stateMutability": "view",
      "type": "function"
    },
    {
      "inputs": [],
      "name": "getEmployerCount",
      "outputs": [
        {
          "internalType": "uint256",
          "name": "",
          "type": "uint256"
        }
      ],
      "stateMutability": "view",
      "type": "function"
    },
    {
      "inputs": [
        {
          "internalType": "address",
          "name": "candidateAddr",
          "type": "address"
        },
        {
          "internalType": "address",
          "name": "employerAddr",
          "type": "address"
        }
      ],
      "name": "getMatchStatus",
      "outputs": [
        {
          "internalType": "bool",
          "name": "exists",
          "type": "bool"
        },
        {
          "internalType": "bool",
          "name": "candidateConsented",
          "type": "bool"
        },
        {
          "internalType": "bool",
          "name": "employerConsented",
          "type": "bool"
        },
        {
          "internalType": "bool",
          "name": "salaryRevealed",
          "type": "bool"
        }
      ],
      "stateMutability": "view",
      "type": "function"
    },
    {
      "inputs": [
        {
          "internalType": "address",
          "name": "",
          "type": "address"
        }
      ],
      "name": "jobPostings",
      "outputs": [
        {
          "internalType": "euint32",
          "name": "budgetMax",
          "type": "bytes32"
        },
        {
          "internalType": "euint32",
          "name": "requiredExpYears",
          "type": "bytes32"
        },
        {
          "internalType": "euint32",
          "name": "requiredSkillMin",
          "type": "bytes32"
        },
        {
          "internalType": "bool",
          "name": "submitted",
          "type": "bool"
        },
        {
          "internalType": "uint256",
          "name": "submittedAt",
          "type": "uint256"
        }
      ],
      "stateMutability": "view",
      "type": "function"
    },
    {
      "inputs": [
        {
          "internalType": "bytes32",
          "name": "",
          "type": "bytes32"
        }
      ],
      "name": "matchResults",
      "outputs": [
        {
          "internalType": "ebool",
          "name": "compatible",
          "type": "bytes32"
        },
        {
          "internalType": "bool",
          "name": "salaryRevealed",
          "type": "bool"
        },
        {
          "internalType": "bool",
          "name": "candidateConsented",
          "type": "bool"
        },
        {
          "internalType": "bool",
          "name": "employerConsented",
          "type": "bool"
        },
        {
          "internalType": "uint256",
          "name": "matchedAt",
          "type": "uint256"
        }
      ],
      "stateMutability": "view",
      "type": "function"
    },
    {
      "inputs": [
        {
          "internalType": "address",
          "name": "candidateAddr",
          "type": "address"
        },
        {
          "internalType": "address",
          "name": "employerAddr",
          "type": "address"
        }
      ],
      "name": "revealMatch",
      "outputs": [
        {
          "internalType": "bool",
          "name": "isCompatible",
          "type": "bool"
        }
      ],
      "stateMutability": "view",
      "type": "function"
    },
    {
      "inputs": [
        {
          "internalType": "address",
          "name": "candidateAddr",
          "type": "address"
        },
        {
          "internalType": "address",
          "name": "employerAddr",
          "type": "address"
        },
        {
          "components": [
            {
              "internalType": "bytes32",
              "name": "publicKey",
              "type": "bytes32"
            },
            {
              "internalType": "bytes",
              "name": "signature",
              "type": "bytes"
            }
          ],
          "internalType": "struct Permission",
          "name": "permission",
          "type": "tuple"
        }
      ],
      "name": "sealedMatchResult",
      "outputs": [
        {
          "internalType": "bool",
          "name": "",
          "type": "bool"
        }
      ],
      "stateMutability": "view",
      "type": "function"
    },
    {
      "inputs": [
        {
          "components": [
            {
              "internalType": "uint256",
              "name": "ctHash",
              "type": "uint256"
            },
            {
              "internalType": "uint8",
              "name": "securityZone",
              "type": "uint8"
            },
            {
              "internalType": "uint8",
              "name": "utype",
              "type": "uint8"
            },
            {
              "internalType": "bytes",
              "name": "signature",
              "type": "bytes"
            }
          ],
          "internalType": "struct InEuint32",
          "name": "inMinSalary",
          "type": "tuple"
        },
        {
          "components": [
            {
              "internalType": "uint256",
              "name": "ctHash",
              "type": "uint256"
            },
            {
              "internalType": "uint8",
              "name": "securityZone",
              "type": "uint8"
            },
            {
              "internalType": "uint8",
              "name": "utype",
              "type": "uint8"
            },
            {
              "internalType": "bytes",
              "name": "signature",
              "type": "bytes"
            }
          ],
          "internalType": "struct InEuint32",
          "name": "inMaxSalary",
          "type": "tuple"
        },
        {
          "components": [
            {
              "internalType": "uint256",
              "name": "ctHash",
              "type": "uint256"
            },
            {
              "internalType": "uint8",
              "name": "securityZone",
              "type": "uint8"
            },
            {
              "internalType": "uint8",
              "name": "utype",
              "type": "uint8"
            },
            {
              "internalType": "bytes",
              "name": "signature",
              "type": "bytes"
            }
          ],
          "internalType": "struct InEuint32",
          "name": "inExperience",
          "type": "tuple"
        },
        {
          "components": [
            {
              "internalType": "uint256",
              "name": "ctHash",
              "type": "uint256"
            },
            {
              "internalType": "uint8",
              "name": "securityZone",
              "type": "uint8"
            },
            {
              "internalType": "uint8",
              "name": "utype",
              "type": "uint8"
            },
            {
              "internalType": "bytes",
              "name": "signature",
              "type": "bytes"
            }
          ],
          "internalType": "struct InEuint32",
          "name": "inSkillScore",
          "type": "tuple"
        }
      ],
      "name": "submitCandidateProfile",
      "outputs": [],
      "stateMutability": "nonpayable",
      "type": "function"
    },
    {
      "inputs": [
        {
          "components": [
            {
              "internalType": "uint256",
              "name": "ctHash",
              "type": "uint256"
            },
            {
              "internalType": "uint8",
              "name": "securityZone",
              "type": "uint8"
            },
            {
              "internalType": "uint8",
              "name": "utype",
              "type": "uint8"
            },
            {
              "internalType": "bytes",
              "name": "signature",
              "type": "bytes"
            }
          ],
          "internalType": "struct InEuint32",
          "name": "inBudgetMax",
          "type": "tuple"
        },
        {
          "components": [
            {
              "internalType": "uint256",
              "name": "ctHash",
              "type": "uint256"
            },
            {
              "internalType": "uint8",
              "name": "securityZone",
              "type": "uint8"
            },
            {
              "internalType": "uint8",
              "name": "utype",
              "type": "uint8"
            },
            {
              "internalType": "bytes",
              "name": "signature",
              "type": "bytes"
            }
          ],
          "internalType": "struct InEuint32",
          "name": "inRequiredExp",
          "type": "tuple"
        },
        {
          "components": [
            {
              "internalType": "uint256",
              "name": "ctHash",
              "type": "uint256"
            },
            {
              "internalType": "uint8",
              "name": "securityZone",
              "type": "uint8"
            },
            {
              "internalType": "uint8",
              "name": "utype",
              "type": "uint8"
            },
            {
              "internalType": "bytes",
              "name": "signature",
              "type": "bytes"
            }
          ],
          "internalType": "struct InEuint32",
          "name": "inRequiredSkill",
          "type": "tuple"
        }
      ],
      "name": "submitJobPosting",
      "outputs": [],
      "stateMutability": "nonpayable",
      "type": "function"
    }
  ],
  "bytecode": "0x610160604052348015610010575f5ffd5b506040805180820182526011815270233432b734bc102832b936b4b9b9b4b7b760791b602080830191909152825180840190935260038352620312e360ec1b908301529061005e825f610107565b6101205261006d816001610107565b61014052815160208084019190912060e052815190820120610100524660a0526100f960e05161010051604080517f8b73c3c69bb8fe3d512ecc4cf759cc79239f7b179b0ffacaa9a75d522b39400f60208201529081019290925260608201524660808201523060a08201525f9060c00160405160208183030381529060405280519060200120905090565b60805250503060c052610329565b5f6020835110156101225761011b83610139565b9050610133565b8161012d8482610217565b5060ff90505b92915050565b5f5f829050601f8151111561016c578260405163305a27a960e01b815260040161016391906102d1565b60405180910390fd5b805161017782610306565b179392505050565b634e487b7160e01b5f52604160045260245ffd5b600181811c908216806101a757607f821691505b6020821081036101c557634e487b7160e01b5f52602260045260245ffd5b50919050565b601f82111561021257805f5260205f20601f840160051c810160208510156101f05750805b601f840160051c820191505b8181101561020f575f81556001016101fc565b50505b505050565b81516001600160401b038111156102305761023061017f565b6102448161023e8454610193565b846101cb565b6020601f821160018114610276575f831561025f5750848201515b5f19600385901b1c1916600184901b17845561020f565b5f84815260208120601f198516915b828110156102a55787850151825560209485019460019092019101610285565b50848210156102c257868401515f19600387901b60f8161c191681555b50505050600190811b01905550565b602081525f82518060208401528060208501604085015e5f604082850101526040601f19601f83011684010191505092915050565b805160208083015191908110156101c5575f1960209190910360031b1b16919050565b60805160a05160c05160e051610100516101205161014051611e0361037a5f395f610fdc01525f610fab01525f61126301525f61123b01525f61119601525f6111c001525f6111ea0152611e035ff3fe608060405234801561000f575f5ffd5b50600436106100fb575f3560e01c8063737f268d11610093578063b13c744b11610063578063b13c744b146102c8578063d678bded146102db578063f8a67dda14610351578063f9887b3f1461038e575f5ffd5b8063737f268d1461021a5780637458b9e21461022d57806384b0196e14610240578063a7a2d22a1461025b575f5ffd5b80632f388ece116100ce5780632f388ece146101ca57806330a56347146101ed5780633a6af669146101ff57806353b2edef14610212575f5ffd5b806302b48553146100ff5780631c03abb714610177578063236545ef146101a2578063254e9010146101b7575b5f5ffd5b61014461010d366004611817565b60046020525f9081526040902080546001820154600290920154909160ff8082169261010083048216926201000090049091169085565b604080519586529315156020860152911515928401929092529015156060830152608082015260a0015b60405180910390f35b61018a610185366004611817565b6103a1565b6040516001600160a01b03909116815260200161016e565b6101b56101b0366004611849565b6103c9565b005b6101b56101c536600461187a565b610619565b6101dd6101d8366004611849565b6106f2565b604051901515815260200161016e565b6005545b60405190815260200161016e565b6101b561020d36600461187a565b610794565b6006546101f1565b6101dd610228366004611930565b610862565b6101b561023b3660046119f9565b61092f565b610248610a5b565b60405161016e9796959493929190611aec565b61029e61026936600461187a565b600360208190525f91825260409091208054600182015460028301549383015460049093015491939092909160ff9091169085565b6040805195865260208601949094529284019190915215156060830152608082015260a00161016e565b61018a6102d6366004611817565b610a9d565b6103226102e936600461187a565b600260208190525f91825260409091208054600182015492820154600383015460048401546005909401549294939192909160ff169086565b6040805196875260208701959095529385019290925260608401521515608083015260a082015260c00161016e565b61036461035f366004611849565b610aac565b6040805194151585529215156020850152901515918301919091521515606082015260800161016e565b6101b561039c366004611b5b565b610af8565b600681815481106103b0575f80fd5b5f918252602090912001546001600160a01b0316905081565b6001600160a01b0382165f9081526002602052604090206004015460ff166104385760405162461bcd60e51b815260206004820152601f60248201527f43616e6469646174652070726f66696c65206e6f74207375626d69747465640060448201526064015b60405180910390fd5b6001600160a01b0381165f908152600360208190526040909120015460ff166104a35760405162461bcd60e51b815260206004820152601960248201527f4a6f6220706f7374696e67206e6f74207375626d697474656400000000000000604482015260640161042f565b6001600160a01b038083165f908152600260209081526040808320938516835260039091528120825481549192916104db9190610c4b565b90505f6104f084600201548460010154610c93565b90505f61050585600301548560020154610c93565b90505f61051b6105158585610cd4565b83610cd4565b90505f6105288989610d16565b6040805160a0810182528481525f60208083018281528385018381526060850184815242608087019081528886526004909452959093209351845551600184018054935195511515620100000262ff0000199615156101000261ff00199315159390931661ffff1990951694909417919091179490941691909117909255905160029091015590506105b982610d5f565b6105c3828a610dc9565b6105cd8289610dc9565b876001600160a01b0316896001600160a01b0316827f34d57b0d34f4f82f9482392fda438d5f7c2af6eb66c05e13c8977e64aa09f10760405160405180910390a4505050505050505050565b5f6106243383610d16565b5f818152600460205260409020600201549091506106795760405162461bcd60e51b815260206004820152601260248201527113585d18da081b9bdd0818dbdb5c1d5d195960721b604482015260640161042f565b5f8181526004602052604090819020600101805461ff00191661010017905551339082907f065dbdacc16c312b870a77856e4df69f61096827067b96cc8f5aa0f2e8585147906106e69060208082526009908201526863616e64696461746560b81b604082015260600190565b60405180910390a35050565b5f5f6106fe8484610d16565b5f818152600460205260409020600181015491925090610100900460ff1680156107325750600181015462010000900460ff165b61077e5760405162461bcd60e51b815260206004820152601960248201527f426f74682070617274696573206d75737420636f6e73656e7400000000000000604482015260640161042f565b805461078990610e3c565b925050505b92915050565b5f61079f8233610d16565b5f818152600460205260409020600201549091506107f45760405162461bcd60e51b815260206004820152601260248201527113585d18da081b9bdd0818dbdb5c1d5d195960721b604482015260640161042f565b5f8181526004602052604090819020600101805462ff000019166201000017905551339082907f065dbdacc16c312b870a77856e4df69f61096827067b96cc8f5aa0f2e8585147906106e69060208082526008908201526732b6b83637bcb2b960c11b604082015260600190565b5f815f6108c27f6bdaeb2d29561f159c7ef98b16b27015fb2aeb87209c7ee656226d912f59927d835f01516040516020016108a7929190918252602082015260400190565b60405160208183030381529060405280519060200120610e50565b90505f6108d3828460200151610e7c565b90506001600160a01b03811633146108fe57604051633093a27760e01b815260040160405180910390fd5b5f6109098888610d16565b5f8181526004602052604090205490915061092390610e3c565b98975050505050505050565b335f90815260036020526040902061094e61094985611c20565b610ea4565b815561095c61094984611c20565b600182015561096d61094983611c20565b600282015560038101805460ff19166001179055426004820155805461099290610d5f565b61099f8160010154610d5f565b6109ac8160020154610d5f565b80546109b790610f0a565b6109c48160010154610f0a565b6109d18160020154610f0a565b6109da33610f48565b610a2057600680546001810182555f919091527ff652222313e28459528d920b65115c16c04f3efc82aaedc97be59f3f377c0d3f0180546001600160a01b031916331790555b60405142815233907fc448c89733aaf47da96b63f9e92273a8806f7d8c4860058a198fe05c70ddc8f19060200160405180910390a250505050565b5f6060805f5f5f6060610a6c610fa4565b610a74610fd5565b604080515f80825260208201909252600f60f81b9b939a50919850469750309650945092509050565b600581815481106103b0575f80fd5b5f5f5f5f5f610abb8787610d16565b5f90815260046020526040902060028101546001909101549015159860ff6101008304811699506201000083048116985090911695509350505050565b335f908152600260205260409020610b1261094986611c20565b8155610b2061094985611c20565b6001820155610b3161094984611c20565b6002820155610b4261094983611c20565b600382015560048101805460ff191660011790554260058201558054610b6790610d5f565b610b748160010154610d5f565b610b818160020154610d5f565b610b8e8160030154610d5f565b8054610b9990610f0a565b610ba68160010154610f0a565b610bb38160020154610f0a565b610bc08160030154610f0a565b610bc933611002565b610c0f57600580546001810182555f919091527f036b6384b5eca791c62761152d0c79bb0604c104a5fb6f4eb0703f3154bb3db00180546001600160a01b031916331790555b60405142815233907f81f3a957beda493332101246b729af4a78e8557de0b70930977aa23fdf4552d69060200160405180910390a25050505050565b5f610c5583611056565b610c6557610c625f61105f565b92505b610c6e82611056565b610c7e57610c7b5f61105f565b91505b610c8c60048484601361106a565b9392505050565b5f610c9d83611056565b610cad57610caa5f61105f565b92505b610cb682611056565b610cc657610cc35f61105f565b91505b610c8c60048484601261106a565b5f610cde83611056565b610cef57610cec600161110b565b92505b610cf882611056565b610d0957610d06600161110b565b91505b610c8c5f8484600a61106a565b6040516bffffffffffffffffffffffff19606084811b8216602084015283901b1660348201525f9060480160405160208183030381529060405280519060200120905092915050565b604051631974142760e21b81526004810182905230602482015273ea30c4b8b44078bbf8a6ef5b9f1ec1626c7848d9906365d0509c906044015b5f604051808303815f87803b158015610db0575f5ffd5b505af1158015610dc2573d5f5f3e3d5ffd5b5050505050565b604051631974142760e21b8152600481018390526001600160a01b038216602482015273ea30c4b8b44078bbf8a6ef5b9f1ec1626c7848d9906365d0509c906044015f604051808303815f87803b158015610e22575f5ffd5b505af1158015610e34573d5f5f3e3d5ffd5b505050505050565b5f5f610e4783611116565b15159392505050565b5f61078e610e5c61118a565b8360405161190160f01b8152600281019290925260228201526042902090565b5f5f5f5f610e8a86866112b3565b925092509250610e9a82826112fc565b5090949350505050565b5f610eb4826040015160046113b8565b60408051608080820183525f808352602080840182905283850191909152606092830183905283519182018452855182528086015160ff1690820152600492810192909252808401519082015261078e906113eb565b604051631974142760e21b81526004810182905233602482015273ea30c4b8b44078bbf8a6ef5b9f1ec1626c7848d9906365d0509c90604401610d99565b5f805b600654811015610f9c57826001600160a01b031660068281548110610f7257610f72611cab565b5f918252602090912001546001600160a01b031603610f945750600192915050565b600101610f4b565b505f92915050565b6060610fd07f00000000000000000000000000000000000000000000000000000000000000005f611442565b905090565b6060610fd07f00000000000000000000000000000000000000000000000000000000000000006001611442565b5f805b600554811015610f9c57826001600160a01b03166005828154811061102c5761102c611cab565b5f918252602090912001546001600160a01b03160361104e5750600192915050565b600101611005565b5f81151561078e565b5f61078e825f6114eb565b5f73ea30c4b8b44078bbf8a6ef5b9f1ec1626c7848d9631888debd86846110918888611501565b604080515f815260208101918290526001600160e01b031960e087901b169091526110c29392919060248101611cd3565b6020604051808303815f875af11580156110de573d5f5f3e3d5ffd5b505050506040513d601f19601f820116820180604052508101906111029190611d2d565b95945050505050565b5f61078e825f61156e565b60405163f6bc7f3f60e01b8152600481018290525f9073ea30c4b8b44078bbf8a6ef5b9f1ec1626c7848d99063f6bc7f3f90602401602060405180830381865afa158015611166573d5f5f3e3d5ffd5b505050506040513d601f19601f8201168201806040525081019061078e9190611d2d565b5f306001600160a01b037f0000000000000000000000000000000000000000000000000000000000000000161480156111e257507f000000000000000000000000000000000000000000000000000000000000000046145b1561120c57507f000000000000000000000000000000000000000000000000000000000000000090565b610fd0604080517f8b73c3c69bb8fe3d512ecc4cf759cc79239f7b179b0ffacaa9a75d522b39400f60208201527f0000000000000000000000000000000000000000000000000000000000000000918101919091527f000000000000000000000000000000000000000000000000000000000000000060608201524660808201523060a08201525f9060c00160405160208183030381529060405280519060200120905090565b5f5f5f83516041036112ea576020840151604085015160608601515f1a6112dc88828585611586565b9550955095505050506112f5565b505081515f91506002905b9250925092565b5f82600381111561130f5761130f611cbf565b03611318575050565b600182600381111561132c5761132c611cbf565b0361134a5760405163f645eedf60e01b815260040160405180910390fd5b600282600381111561135e5761135e611cbf565b0361137f5760405163fce698f760e01b81526004810182905260240161042f565b600382600381111561139357611393611cbf565b036113b4576040516335e2f38360e21b81526004810182905260240161042f565b5050565b8060ff168260ff16146113b4576040516367cf307160e01b815260ff80841660048301528216602482015260440161042f565b6040516313fce3b160e11b81525f9073ea30c4b8b44078bbf8a6ef5b9f1ec1626c7848d9906327f9c762906114269085903390600401611d44565b6020604051808303815f875af1158015611166573d5f5f3e3d5ffd5b606060ff831461145c576114558361164e565b905061078e565b81805461146890611d9b565b80601f016020809104026020016040519081016040528092919081815260200182805461149490611d9b565b80156114df5780601f106114b6576101008083540402835291602001916114df565b820191905f5260205f20905b8154815290600101906020018083116114c257829003601f168201915b5050505050905061078e565b5f5f6114f98460048561168b565b949350505050565b60408051600280825260608083018452925f929190602083019080368337019050509050835f1c815f8151811061153a5761153a611cab565b602002602001018181525050825f1c8160018151811061155c5761155c611cab565b60209081029190910101529392505050565b5f80831561157a575060015b5f610789825f8661168b565b5f80807f7fffffffffffffffffffffffffffffff5d576e7357a4501ddfe92f46681b20a08411156115bf57505f91506003905082611644565b604080515f808252602082018084528a905260ff891692820192909252606081018790526080810186905260019060a0016020604051602081039080840390855afa158015611610573d5f5f3e3d5ffd5b5050604051601f1901519150506001600160a01b03811661163b57505f925060019150829050611644565b92505f91508190505b9450945094915050565b60605f61165a83611730565b6040805160208082528183019092529192505f91906020820181803683375050509182525060208101929092525090565b604080515f8082526020820190925273ea30c4b8b44078bbf8a6ef5b9f1ec1626c7848d990631888debd908590601a906116d1898960ff166116cc8a611757565b61178c565b6040518563ffffffff1660e01b81526004016116f09493929190611cd3565b6020604051808303815f875af115801561170c573d5f5f3e3d5ffd5b505050506040513d601f19601f820116820180604052508101906114f99190611d2d565b5f60ff8216601f81111561078e57604051632cd44ac360e21b815260040160405180910390fd5b5f5f8260030b1215611782576040516311ead17f60e31b8152600383900b600482015260240161042f565b5063ffffffff1690565b604080516003808252608082019092526060915f919060208201848036833701905050905084815f815181106117c4576117c4611cab565b60200260200101818152505083816001815181106117e4576117e4611cab565b602002602001018181525050828160028151811061180457611804611cab565b6020908102919091010152949350505050565b5f60208284031215611827575f5ffd5b5035919050565b80356001600160a01b0381168114611844575f5ffd5b919050565b5f5f6040838503121561185a575f5ffd5b6118638361182e565b91506118716020840161182e565b90509250929050565b5f6020828403121561188a575f5ffd5b610c8c8261182e565b634e487b7160e01b5f52604160045260245ffd5b5f82601f8301126118b6575f5ffd5b81356001600160401b038111156118cf576118cf611893565b604051601f8201601f19908116603f011681016001600160401b03811182821017156118fd576118fd611893565b604052818152838201602001851015611914575f5ffd5b816020850160208301375f918101602001919091529392505050565b5f5f5f60608486031215611942575f5ffd5b61194b8461182e565b92506119596020850161182e565b915060408401356001600160401b03811115611973575f5ffd5b840160408187031215611984575f5ffd5b604080519081016001600160401b03811182821017156119a6576119a6611893565b6040528135815260208201356001600160401b038111156119c5575f5ffd5b6119d1888285016118a7565b60208301525080925050509250925092565b5f608082840312156119f3575f5ffd5b50919050565b5f5f5f60608486031215611a0b575f5ffd5b83356001600160401b03811115611a20575f5ffd5b611a2c868287016119e3565b93505060208401356001600160401b03811115611a47575f5ffd5b611a53868287016119e3565b92505060408401356001600160401b03811115611a6e575f5ffd5b611a7a868287016119e3565b9150509250925092565b5f81518084528060208401602086015e5f602082860101526020601f19601f83011685010191505092915050565b5f8151808452602084019350602083015f5b82811015611ae2578151865260209586019590910190600101611ac4565b5093949350505050565b60ff60f81b8816815260e060208201525f611b0a60e0830189611a84565b8281036040840152611b1c8189611a84565b606084018890526001600160a01b038716608085015260a0840186905283810360c08501529050611b4d8185611ab2565b9a9950505050505050505050565b5f5f5f5f60808587031215611b6e575f5ffd5b84356001600160401b03811115611b83575f5ffd5b611b8f878288016119e3565b94505060208501356001600160401b03811115611baa575f5ffd5b611bb6878288016119e3565b93505060408501356001600160401b03811115611bd1575f5ffd5b611bdd878288016119e3565b92505060608501356001600160401b03811115611bf8575f5ffd5b611c04878288016119e3565b91505092959194509250565b803560ff81168114611844575f5ffd5b5f60808236031215611c30575f5ffd5b604051608081016001600160401b0381118282101715611c5257611c52611893565b60405282358152611c6560208401611c10565b6020820152611c7660408401611c10565b604082015260608301356001600160401b03811115611c93575f5ffd5b611c9f368286016118a7565b60608301525092915050565b634e487b7160e01b5f52603260045260245ffd5b634e487b7160e01b5f52602160045260245ffd5b60ff851681525f60208510611cf657634e487b7160e01b5f52602160045260245ffd5b84602083015260806040830152611d106080830185611ab2565b8281036060840152611d228185611ab2565b979650505050505050565b5f60208284031215611d3d575f5ffd5b5051919050565b604081528251604082015260ff602084015116606082015260ff60408401511660808201525f6060840151608060a0840152611d8360c0840182611a84565b91505060018060a01b03831660208301529392505050565b600181811c90821680611daf57607f821691505b6020821081036119f357634e487b7160e01b5f52602260045260245ffdfea2646970667358221220391ea5c3fb966af52c091d89f713405bc97d5318ea365b92842180387166c11464736f6c634300081c0033",
  "linkReferences": {},
  "deployedLinkReferences": {}
}