{
  "_format": "hh-sol-artifact-1",
  "contractName": "CipherStealth",
  "sourceName": "contracts/CipherStealth.sol",
  "abi": [
    {
      "inputs": [],
      "name": "InvalidShortString",
      "type": "error"
    },
    {
      "inputs": [],
      "name": "SignerNotMessageSender",
      "type": "error"
    },
    {
      "inputs": [],
      "name": "SignerNotOwner",
      "type": "error"
    },
    {
      "inputs": [
        {
          "internalType": "string",
          "name": "str",
          "type": "string"
        }
      ],
      "name": "StringTooLong",
      "type": "error"
    },
    {
      "anonymous": false,
      "inputs": [
        {
          "indexed": true,
          "internalType": "address",
          "name": "candidate",
          "type": "address"
        },
        {
          "indexed": true,
          "internalType": "bytes32",
          "name": "domainHash",
          "type": "bytes32"
        }
      ],
      "name": "DomainBlocked",
      "type": "event"
    },
    {
      "anonymous": false,
      "inputs": [],
      "name": "EIP712DomainChanged",
      "type": "event"
    },
    {
      "anonymous": false,
      "inputs": [
        {
          "indexed": true,
          "internalType": "address",
          "name": "candidate",
          "type": "address"
        },
        {
          "indexed": true,
          "internalType": "address",
          "name": "employer",
          "type": "address"
        }
      ],
      "name": "EmployerAllowed",
      "type": "event"
    },
    {
      "anonymous": false,
      "inputs": [
        {
          "indexed": true,
          "internalType": "address",
          "name": "candidate",
          "type": "address"
        },
        {
          "indexed": true,
          "internalType": "address",
          "name": "employer",
          "type": "address"
        }
      ],
      "name": "EmployerBlocked",
      "type": "event"
    },
    {
      "anonymous": false,
      "inputs": [
        {
          "indexed": true,
          "internalType": "address",
          "name": "candidate",
          "type": "address"
        },
        {
          "indexed": true,
          "internalType": "address",
          "name": "employer",
          "type": "address"
        }
      ],
      "name": "EmployerUnblocked",
      "type": "event"
    },
    {
      "anonymous": false,
      "inputs": [
        {
          "indexed": true,
          "internalType": "address",
          "name": "candidate",
          "type": "address"
        },
        {
          "indexed": false,
          "internalType": "enum CipherStealth.StealthMode",
          "name": "mode",
          "type": "uint8"
        }
      ],
      "name": "StealthModeUpdated",
      "type": "event"
    },
    {
      "anonymous": false,
      "inputs": [
        {
          "indexed": true,
          "internalType": "address",
          "name": "candidate",
          "type": "address"
        },
        {
          "indexed": false,
          "internalType": "uint256",
          "name": "unlockDate",
          "type": "uint256"
        }
      ],
      "name": "TimeLockSet",
      "type": "event"
    },
    {
      "inputs": [
        {
          "internalType": "address",
          "name": "employer",
          "type": "address"
        }
      ],
      "name": "allowEmployer",
      "outputs": [],
      "stateMutability": "nonpayable",
      "type": "function"
    },
    {
      "inputs": [
        {
          "internalType": "address",
          "name": "",
          "type": "address"
        },
        {
          "internalType": "address",
          "name": "",
          "type": "address"
        }
      ],
      "name": "allowlist",
      "outputs": [
        {
          "internalType": "bool",
          "name": "",
          "type": "bool"
        }
      ],
      "stateMutability": "view",
      "type": "function"
    },
    {
      "inputs": [
        {
          "internalType": "address",
          "name": "",
          "type": "address"
        }
      ],
      "name": "allowlistCount",
      "outputs": [
        {
          "internalType": "uint256",
          "name": "",
          "type": "uint256"
        }
      ],
      "stateMutability": "view",
      "type": "function"
    },
    {
      "inputs": [
        {
          "internalType": "bytes32",
          "name": "domainHash",
          "type": "bytes32"
        }
      ],
      "name": "blockDomain",
      "outputs": [],
      "stateMutability": "nonpayable",
      "type": "function"
    },
    {
      "inputs": [
        {
          "internalType": "address",
          "name": "employer",
          "type": "address"
        }
      ],
      "name": "blockEmployer",
      "outputs": [],
      "stateMutability": "nonpayable",
      "type": "function"
    },
    {
      "inputs": [
        {
          "internalType": "address",
          "name": "",
          "type": "address"
        },
        {
          "internalType": "address",
          "name": "",
          "type": "address"
        }
      ],
      "name": "blocklist",
      "outputs": [
        {
          "internalType": "bool",
          "name": "",
          "type": "bool"
        }
      ],
      "stateMutability": "view",
      "type": "function"
    },
    {
      "inputs": [
        {
          "internalType": "address",
          "name": "",
          "type": "address"
        }
      ],
      "name": "blocklistCount",
      "outputs": [
        {
          "internalType": "uint256",
          "name": "",
          "type": "uint256"
        }
      ],
      "stateMutability": "view",
      "type": "function"
    },
    {
      "inputs": [
        {
          "internalType": "address",
          "name": "",
          "type": "address"
        },
        {
          "internalType": "bytes32",
          "name": "",
          "type": "bytes32"
        }
      ],
      "name": "domainBlocklist",
      "outputs": [
        {
          "internalType": "bool",
          "name": "",
          "type": "bool"
        }
      ],
      "stateMutability": "view",
      "type": "function"
    },
    {
      "inputs": [],
      "name": "eip712Domain",
      "outputs": [
        {
          "internalType": "bytes1",
          "name": "fields",
          "type": "bytes1"
        },
        {
          "internalType": "string",
          "name": "name",
          "type": "string"
        },
        {
          "internalType": "string",
          "name": "version",
          "type": "string"
        },
        {
          "internalType": "uint256",
          "name": "chainId",
          "type": "uint256"
        },
        {
          "internalType": "address",
          "name": "verifyingContract",
          "type": "address"
        },
        {
          "internalType": "bytes32",
          "name": "salt",
          "type": "bytes32"
        },
        {
          "internalType": "uint256[]",
          "name": "extensions",
          "type": "uint256[]"
        }
      ],
      "stateMutability": "view",
      "type": "function"
    },
    {
      "inputs": [
        {
          "internalType": "address",
          "name": "candidate",
          "type": "address"
        }
      ],
      "name": "getStealthSettings",
      "outputs": [
        {
          "internalType": "enum CipherStealth.StealthMode",
          "name": "mode",
          "type": "uint8"
        },
        {
          "internalType": "uint256",
          "name": "timeLockDate",
          "type": "uint256"
        },
        {
          "internalType": "bool",
          "name": "active",
          "type": "bool"
        },
        {
          "internalType": "uint256",
          "name": "blockCount",
          "type": "uint256"
        },
        {
          "internalType": "uint256",
          "name": "allowCount",
          "type": "uint256"
        }
      ],
      "stateMutability": "view",
      "type": "function"
    },
    {
      "inputs": [
        {
          "internalType": "address",
          "name": "candidate",
          "type": "address"
        },
        {
          "internalType": "address",
          "name": "employer",
          "type": "address"
        }
      ],
      "name": "isVisible",
      "outputs": [
        {
          "internalType": "bool",
          "name": "",
          "type": "bool"
        }
      ],
      "stateMutability": "view",
      "type": "function"
    },
    {
      "inputs": [
        {
          "internalType": "enum CipherStealth.StealthMode",
          "name": "mode",
          "type": "uint8"
        }
      ],
      "name": "setStealthMode",
      "outputs": [],
      "stateMutability": "nonpayable",
      "type": "function"
    },
    {
      "inputs": [
        {
          "internalType": "uint256",
          "name": "unlockDate",
          "type": "uint256"
        }
      ],
      "name": "setTimeLock",
      "outputs": [],
      "stateMutability": "nonpayable",
      "type": "function"
    },
    {
      "inputs": [
        {
          "internalType": "address",
          "name": "",
          "type": "address"
        }
      ],
      "name": "stealthSettings",
      "outputs": [
        {
          "internalType": "enum CipherStealth.StealthMode",
          "name": "mode",
          "type": "uint8"
        },
        {
          "internalType": "uint256",
          "name": "timeLockDate",
          "type": "uint256"
        },
        {
          "internalType": "bool",
          "name": "active",
          "type": "bool"
        },
        {
          "internalType": "uint256",
          "name": "updatedAt",
          "type": "uint256"
        }
      ],
      "stateMutability": "view",
      "type": "function"
    },
    {
      "inputs": [
        {
          "internalType": "address",
          "name": "employer",
          "type": "address"
        }
      ],
      "name": "unblockEmployer",
      "outputs": [],
      "stateMutability": "nonpayable",
      "type": "function"
    }
  ],
  "bytecode": "0x610160604052348015610010575f5ffd5b506040805180820182526011815270233432b734bc102832b936b4b9b9b4b7b760791b602080830191909152825180840190935260038352620312e360ec1b908301529061005e825f610107565b6101205261006d816001610107565b61014052815160208084019190912060e052815190820120610100524660a0526100f960e05161010051604080517f8b73c3c69bb8fe3d512ecc4cf759cc79239f7b179b0ffacaa9a75d522b39400f60208201529081019290925260608201524660808201523060a08201525f9060c00160405160208183030381529060405280519060200120905090565b60805250503060c052610329565b5f6020835110156101225761011b83610139565b9050610133565b8161012d8482610217565b5060ff90505b92915050565b5f5f829050601f8151111561016c578260405163305a27a960e01b815260040161016391906102d1565b60405180910390fd5b805161017782610306565b179392505050565b634e487b7160e01b5f52604160045260245ffd5b600181811c908216806101a757607f821691505b6020821081036101c557634e487b7160e01b5f52602260045260245ffd5b50919050565b601f82111561021257805f5260205f20601f840160051c810160208510156101f05750805b601f840160051c820191505b8181101561020f575f81556001016101fc565b50505b505050565b81516001600160401b038111156102305761023061017f565b6102448161023e8454610193565b846101cb565b6020601f821160018114610276575f831561025f5750848201515b5f19600385901b1c1916600184901b17845561020f565b5f84815260208120601f198516915b828110156102a55787850151825560209485019460019092019101610285565b50848210156102c257868401515f19600387901b60f8161c191681555b50505050600190811b01905550565b602081525f82518060208401528060208501604085015e5f604082850101526040601f19601f83011684010191505092915050565b805160208083015191908110156101c5575f1960209190910360031b1b16919050565b60805160a05160c05160e051610100516101205161014051610cf861036b5f395f6108f101525f6108c001525f50505f50505f50505f50505f5050610cf85ff3fe608060405234801561000f575f5ffd5b50600436106100f0575f3560e01c80638d4edd5e11610093578063d2849d4a11610063578063d2849d4a146102ae578063d5cac94f146102c1578063d98c07b7146102ee578063e82f1f791461031b575f5ffd5b80638d4edd5e146102125780639be5b8cb14610225578063c8eb58fc14610288578063cadde1e01461029b575f5ffd5b80635bcb318a116100ce5780635bcb318a1461018257806369cf968c14610197578063832894a5146101aa57806384b0196e146101f7575f5ffd5b80631e16ffba146100f45780632c9579241461012657806358ed3bad14610145575b5f5ffd5b610113610102366004610a3b565b60076020525f908152604090205481565b6040519081526020015b60405180910390f35b610113610134366004610a3b565b60066020525f908152604090205481565b610172610153366004610a5b565b600560209081525f928352604080842090915290825290205460ff1681565b604051901515815260200161011d565b610195610190366004610a83565b61032e565b005b6101726101a5366004610a9a565b6103d8565b6101e76101b8366004610a3b565b600260208190525f9182526040909120805460018201549282015460039092015460ff91821693929091169084565b60405161011d9493929190610aff565b6101ff6104fc565b60405161011d9796959493929190610b56565b610195610220366004610a83565b61053e565b610277610233366004610a3b565b6001600160a01b03165f90815260026020818152604080842080546001820154919094015460068452828620546007909452919094205460ff938416959390911692565b60405161011d959493929190610bec565b610195610296366004610c1d565b61058d565b6101956102a9366004610a3b565b610612565b6101956102bc366004610a3b565b6106f7565b6101726102cf366004610a9a565b600360209081525f928352604080842090915290825290205460ff1681565b6101726102fc366004610a9a565b600460209081525f928352604080842090915290825290205460ff1681565b610195610329366004610a3b565b6107d4565b42811161037a5760405162461bcd60e51b81526020600482015260156024820152744d75737420626520696e207468652066757475726560581b60448201526064015b60405180910390fd5b335f8181526002602090815260409182902060018101859055805460ff1916600390811782554291015590518381527fa9353e70f07f31e7f4e16464f45e189cbd22826780a5abe4da8303652a86960a91015b60405180910390a250565b6001600160a01b0382165f90815260026020819052604082209081015460ff166104065760019150506104f6565b6004815460ff16600481111561041e5761041e610acb565b0361042c575f9150506104f6565b6003815460ff16600481111561044457610444610acb565b03610457576001015442101590506104f6565b6001815460ff16600481111561046f5761046f610acb565b036104a45750506001600160a01b038083165f9081526003602090815260408083209385168352929052205460ff16156104f6565b6002815460ff1660048111156104bc576104bc610acb565b036104f05750506001600160a01b038083165f9081526004602090815260408083209385168352929052205460ff166104f6565b60019150505b92915050565b5f6060805f5f5f606061050d6108b9565b6105156108ea565b604080515f80825260208201909252600f60f81b9b939a50919850469750309650945092509050565b335f818152600560209081526040808320858452909152808220805460ff19166001179055518392917f77a6e702ce29153afac727a78d0874f149491b13414bfcd8c687f842c83cff0891a350565b335f908152600260205260409020805482919060ff191660018360048111156105b8576105b8610acb565b0217905550335f81815260026020819052604091829020908101805460ff1916600117905542600390910155517f45cb82bf42c73d6625fd93b927e88a514a146ff25489daec0e4cbc995b502c4f906103cd908490610c3b565b335f9081526004602090815260408083206001600160a01b038516845290915290205460ff16156106775760405162461bcd60e51b815260206004820152600f60248201526e105b1c9958591e48185b1b1bddd959608a1b6044820152606401610371565b335f8181526004602090815260408083206001600160a01b03861684528252808320805460ff19166001179055928252600790529081208054916106ba83610c5d565b90915550506040516001600160a01b0382169033907f618f845a92551e4a83284a88fdb890cfb1bba878985422e23ede4bd1dbd941be905f90a350565b335f9081526003602090815260408083206001600160a01b038516845290915290205460ff166107575760405162461bcd60e51b815260206004820152600b60248201526a139bdd08189b1bd8dad95960aa1b6044820152606401610371565b335f8181526003602090815260408083206001600160a01b03861684528252808320805460ff191690559282526006905290812080549161079783610c75565b90915550506040516001600160a01b0382169033907faf8b7c92fcca299b75843bdcc321f45aef412a615bd4f9e40596cd4ae0bcd957905f90a350565b335f9081526003602090815260408083206001600160a01b038516845290915290205460ff16156108395760405162461bcd60e51b815260206004820152600f60248201526e105b1c9958591e48189b1bd8dad959608a1b6044820152606401610371565b335f8181526003602090815260408083206001600160a01b03861684528252808320805460ff191660011790559282526006905290812080549161087c83610c5d565b90915550506040516001600160a01b0382169033907fe09026079b8f5cc804ae3a7c722ae54d1d079eeab3c725a15cd940b25b8507bc905f90a350565b60606108e57f00000000000000000000000000000000000000000000000000000000000000005f610913565b905090565b60606108e57f000000000000000000000000000000000000000000000000000000000000000060015b606060ff831461092d57610926836109bc565b90506104f6565b81805461093990610c8a565b80601f016020809104026020016040519081016040528092919081815260200182805461096590610c8a565b80156109b05780601f10610987576101008083540402835291602001916109b0565b820191905f5260205f20905b81548152906001019060200180831161099357829003601f168201915b505050505090506104f6565b60605f6109c8836109f9565b6040805160208082528183019092529192505f91906020820181803683375050509182525060208101929092525090565b5f60ff8216601f8111156104f657604051632cd44ac360e21b815260040160405180910390fd5b80356001600160a01b0381168114610a36575f5ffd5b919050565b5f60208284031215610a4b575f5ffd5b610a5482610a20565b9392505050565b5f5f60408385031215610a6c575f5ffd5b610a7583610a20565b946020939093013593505050565b5f60208284031215610a93575f5ffd5b5035919050565b5f5f60408385031215610aab575f5ffd5b610ab483610a20565b9150610ac260208401610a20565b90509250929050565b634e487b7160e01b5f52602160045260245ffd5b60058110610afb57634e487b7160e01b5f52602160045260245ffd5b9052565b60808101610b0d8287610adf565b60208201949094529115156040830152606090910152919050565b5f81518084528060208401602086015e5f602082860101526020601f19601f83011685010191505092915050565b60ff60f81b8816815260e060208201525f610b7460e0830189610b28565b8281036040840152610b868189610b28565b606084018890526001600160a01b038716608085015260a0840186905283810360c0850152845180825260208087019350909101905f5b81811015610bdb578351835260209384019390920191600101610bbd565b50909b9a5050505050505050505050565b60a08101610bfa8288610adf565b602082019590955292151560408401526060830191909152608090910152919050565b5f60208284031215610c2d575f5ffd5b813560058110610a54575f5ffd5b602081016104f68284610adf565b634e487b7160e01b5f52601160045260245ffd5b5f60018201610c6e57610c6e610c49565b5060010190565b5f81610c8357610c83610c49565b505f190190565b600181811c90821680610c9e57607f821691505b602082108103610cbc57634e487b7160e01b5f52602260045260245ffd5b5091905056fea26469706673582212208c6275c6f3218d8e955b97cc3eb0be80ce912af865974f36bb24adaa7c89477464736f6c634300081c0033",
  "linkReferences": {},
  "deployedLinkReferences": {}
}