{
  "_format": "hh-sol-artifact-1",
  "contractName": "CipherGovernance",
  "sourceName": "contracts/CipherGovernance.sol",
  "abi": [
    {
      "inputs": [],
      "stateMutability": "nonpayable",
      "type": "constructor"
    },
    {
      "inputs": [
        {
          "internalType": "uint8",
          "name": "got",
          "type": "uint8"
        },
        {
          "internalType": "uint8",
          "name": "expected",
          "type": "uint8"
        }
      ],
      "name": "InvalidEncryptedInput",
      "type": "error"
    },
    {
      "inputs": [],
      "name": "InvalidShortString",
      "type": "error"
    },
    {
      "inputs": [
        {
          "internalType": "int32",
          "name": "value",
          "type": "int32"
        }
      ],
      "name": "SecurityZoneOutOfBounds",
      "type": "error"
    },
    {
      "inputs": [],
      "name": "SignerNotMessageSender",
      "type": "error"
    },
    {
      "inputs": [],
      "name": "SignerNotOwner",
      "type": "error"
    },
    {
      "inputs": [
        {
          "internalType": "string",
          "name": "str",
          "type": "string"
        }
      ],
      "name": "StringTooLong",
      "type": "error"
    },
    {
      "anonymous": false,
      "inputs": [],
      "name": "EIP712DomainChanged",
      "type": "event"
    },
    {
      "anonymous": false,
      "inputs": [
        {
          "indexed": true,
          "internalType": "uint256",
          "name": "id",
          "type": "uint256"
        },
        {
          "indexed": true,
          "internalType": "address",
          "name": "proposer",
          "type": "address"
        },
        {
          "indexed": false,
          "internalType": "string",
          "name": "title",
          "type": "string"
        }
      ],
      "name": "ProposalCreated",
      "type": "event"
    },
    {
      "anonymous": false,
      "inputs": [
        {
          "indexed": true,
          "internalType": "uint256",
          "name": "id",
          "type": "uint256"
        },
        {
          "indexed": false,
          "internalType": "enum CipherGovernance.ProposalStatus",
          "name": "status",
          "type": "uint8"
        }
      ],
      "name": "ProposalFinalized",
      "type": "event"
    },
    {
      "anonymous": false,
      "inputs": [
        {
          "indexed": true,
          "internalType": "uint256",
          "name": "proposalId",
          "type": "uint256"
        },
        {
          "indexed": true,
          "internalType": "address",
          "name": "voter",
          "type": "address"
        },
        {
          "indexed": false,
          "internalType": "bool",
          "name": "support",
          "type": "bool"
        }
      ],
      "name": "VoteCast",
      "type": "event"
    },
    {
      "inputs": [],
      "name": "MIN_QUORUM",
      "outputs": [
        {
          "internalType": "uint256",
          "name": "",
          "type": "uint256"
        }
      ],
      "stateMutability": "view",
      "type": "function"
    },
    {
      "inputs": [],
      "name": "VOTING_PERIOD",
      "outputs": [
        {
          "internalType": "uint256",
          "name": "",
          "type": "uint256"
        }
      ],
      "stateMutability": "view",
      "type": "function"
    },
    {
      "inputs": [],
      "name": "admin",
      "outputs": [
        {
          "internalType": "address",
          "name": "",
          "type": "address"
        }
      ],
      "stateMutability": "view",
      "type": "function"
    },
    {
      "inputs": [
        {
          "internalType": "uint256",
          "name": "proposalId",
          "type": "uint256"
        },
        {
          "components": [
            {
              "internalType": "uint256",
              "name": "ctHash",
              "type": "uint256"
            },
            {
              "internalType": "uint8",
              "name": "securityZone",
              "type": "uint8"
            },
            {
              "internalType": "uint8",
              "name": "utype",
              "type": "uint8"
            },
            {
              "internalType": "bytes",
              "name": "signature",
              "type": "bytes"
            }
          ],
          "internalType": "struct InEuint32",
          "name": "inVoteWeight",
          "type": "tuple"
        },
        {
          "internalType": "bool",
          "name": "support",
          "type": "bool"
        }
      ],
      "name": "castVote",
      "outputs": [],
      "stateMutability": "nonpayable",
      "type": "function"
    },
    {
      "inputs": [
        {
          "internalType": "string",
          "name": "title",
          "type": "string"
        },
        {
          "internalType": "string",
          "name": "description",
          "type": "string"
        }
      ],
      "name": "createProposal",
      "outputs": [
        {
          "internalType": "uint256",
          "name": "id",
          "type": "uint256"
        }
      ],
      "stateMutability": "nonpayable",
      "type": "function"
    },
    {
      "inputs": [],
      "name": "eip712Domain",
      "outputs": [
        {
          "internalType": "bytes1",
          "name": "fields",
          "type": "bytes1"
        },
        {
          "internalType": "string",
          "name": "name",
          "type": "string"
        },
        {
          "internalType": "string",
          "name": "version",
          "type": "string"
        },
        {
          "internalType": "uint256",
          "name": "chainId",
          "type": "uint256"
        },
        {
          "internalType": "address",
          "name": "verifyingContract",
          "type": "address"
        },
        {
          "internalType": "bytes32",
          "name": "salt",
          "type": "bytes32"
        },
        {
          "internalType": "uint256[]",
          "name": "extensions",
          "type": "uint256[]"
        }
      ],
      "stateMutability": "view",
      "type": "function"
    },
    {
      "inputs": [
        {
          "internalType": "uint256",
          "name": "proposalId",
          "type": "uint256"
        }
      ],
      "name": "finalizeProposal",
      "outputs": [],
      "stateMutability": "nonpayable",
      "type": "function"
    },
    {
      "inputs": [],
      "name": "getProposalCount",
      "outputs": [
        {
          "internalType": "uint256",
          "name": "",
          "type": "uint256"
        }
      ],
      "stateMutability": "view",
      "type": "function"
    },
    {
      "inputs": [
        {
          "internalType": "uint256",
          "name": "proposalId",
          "type": "uint256"
        }
      ],
      "name": "getProposalStatus",
      "outputs": [
        {
          "internalType": "enum CipherGovernance.ProposalStatus",
          "name": "",
          "type": "uint8"
        }
      ],
      "stateMutability": "view",
      "type": "function"
    },
    {
      "inputs": [
        {
          "internalType": "uint256",
          "name": "",
          "type": "uint256"
        },
        {
          "internalType": "address",
          "name": "",
          "type": "address"
        }
      ],
      "name": "hasVoted",
      "outputs": [
        {
          "internalType": "bool",
          "name": "",
          "type": "bool"
        }
      ],
      "stateMutability": "view",
      "type": "function"
    },
    {
      "inputs": [],
      "name": "proposalCount",
      "outputs": [
        {
          "internalType": "uint256",
          "name": "",
          "type": "uint256"
        }
      ],
      "stateMutability": "view",
      "type": "function"
    },
    {
      "inputs": [
        {
          "internalType": "uint256",
          "name": "",
          "type": "uint256"
        }
      ],
      "name": "proposals",
      "outputs": [
        {
          "internalType": "uint256",
          "name": "id",
          "type": "uint256"
        },
        {
          "internalType": "string",
          "name": "title",
          "type": "string"
        },
        {
          "internalType": "string",
          "name": "description",
          "type": "string"
        },
        {
          "internalType": "address",
          "name": "proposer",
          "type": "address"
        },
        {
          "internalType": "euint32",
          "name": "votesFor",
          "type": "bytes32"
        },
        {
          "internalType": "euint32",
          "name": "votesAgainst",
          "type": "bytes32"
        },
        {
          "internalType": "enum CipherGovernance.ProposalStatus",
          "name": "status",
          "type": "uint8"
        },
        {
          "internalType": "uint256",
          "name": "createdAt",
          "type": "uint256"
        },
        {
          "internalType": "uint256",
          "name": "votingEndsAt",
          "type": "uint256"
        },
        {
          "internalType": "uint256",
          "name": "executedAt",
          "type": "uint256"
        }
      ],
      "stateMutability": "view",
      "type": "function"
    }
  ],
  "bytecode": "0x610160604052348015610010575f5ffd5b506040805180820182526011815270233432b734bc102832b936b4b9b9b4b7b760791b602080830191909152825180840190935260038352620312e360ec1b908301529061005e825f610119565b6101205261006d816001610119565b61014052815160208084019190912060e052815190820120610100524660a0526100f960e05161010051604080517f8b73c3c69bb8fe3d512ecc4cf759cc79239f7b179b0ffacaa9a75d522b39400f60208201529081019290925260608201524660808201523060a08201525f9060c00160405160208183030381529060405280519060200120905090565b60805250503060c052600580546001600160a01b0319163317905561033b565b5f6020835110156101345761012d8361014b565b9050610145565b8161013f8482610229565b5060ff90505b92915050565b5f5f829050601f8151111561017e578260405163305a27a960e01b815260040161017591906102e3565b60405180910390fd5b805161018982610318565b179392505050565b634e487b7160e01b5f52604160045260245ffd5b600181811c908216806101b957607f821691505b6020821081036101d757634e487b7160e01b5f52602260045260245ffd5b50919050565b601f82111561022457805f5260205f20601f840160051c810160208510156102025750805b601f840160051c820191505b81811015610221575f815560010161020e565b50505b505050565b81516001600160401b0381111561024257610242610191565b6102568161025084546101a5565b846101dd565b6020601f821160018114610288575f83156102715750848201515b5f19600385901b1c1916600184901b178455610221565b5f84815260208120601f198516915b828110156102b75787850151825560209485019460019092019101610297565b50848210156102d457868401515f19600387901b60f8161c191681555b50505050600190811b01905550565b602081525f82518060208401528060208501604085015e5f604082850101526040601f19601f83011684010191505092915050565b805160208083015191908110156101d7575f1960209190910360031b1b16919050565b60805160a05160c05160e05161010051610120516101405161164961037d5f395f610a9d01525f610a6c01525f50505f50505f50505f50505f50506116495ff3fe608060405234801561000f575f5ffd5b50600436106100b1575f3560e01c806365e481e21161006e57806365e481e21461019457806384b0196e146101a7578063b1610d7e146101c2578063c08cc02d146101cc578063da35c664146101d4578063f851a440146101dd575f5ffd5b8063013cf08b146100b557806314079e85146100e7578063401853b7146100fc578063438596321461012e5780635652077c1461016b5780635f3ad7091461017e575b5f5ffd5b6100c86100c3366004610f64565b610208565b6040516100de9a99989796959493929190610fd1565b60405180910390f35b6100fa6100f536600461104e565b610370565b005b61012161010a366004610f64565b5f9081526002602052604090206006015460ff1690565b6040516100de91906110ad565b61015b61013c3660046110bb565b600360209081525f928352604080842090915290825290205460ff1681565b60405190151581526020016100de565b6100fa610179366004610f64565b610536565b610186600a81565b6040519081526020016100de565b6101866101a2366004611139565b610677565b6101af6108a6565b6040516100de97969594939291906111df565b61018662093a8081565b600454610186565b61018660045481565b6005546101f0906001600160a01b031681565b6040516001600160a01b0390911681526020016100de565b60026020525f9081526040902080546001820180549192916102299061124e565b80601f01602080910402602001604051908101604052809291908181526020018280546102559061124e565b80156102a05780601f10610277576101008083540402835291602001916102a0565b820191905f5260205f20905b81548152906001019060200180831161028357829003601f168201915b5050505050908060020180546102b59061124e565b80601f01602080910402602001604051908101604052809291908181526020018280546102e19061124e565b801561032c5780601f106103035761010080835404028352916020019161032c565b820191905f5260205f20905b81548152906001019060200180831161030f57829003601f168201915b50505060038401546004850154600586015460068701546007880154600889015460099099015497986001600160a01b039095169793965091945060ff169290918a565b5f83815260026020526040812090600682015460ff16600481111561039757610397610fa9565b146103d65760405162461bcd60e51b815260206004820152600a6024820152694e6f742061637469766560b01b60448201526064015b60405180910390fd5b80600801544211156104195760405162461bcd60e51b815260206004820152600c60248201526b159bdd1a5b99c8195b99195960a21b60448201526064016103cd565b5f84815260036020908152604080832033845290915290205460ff16156104725760405162461bcd60e51b815260206004820152600d60248201526c105b1c9958591e481d9bdd1959609a1b60448201526064016103cd565b5f61048461047f85611309565b6108e8565b905061048f81610954565b82156104b8576104a38260040154826109bd565b600483018190556104b390610954565b6104d6565b6104c68260050154826109bd565b600583018190556104d690610954565b5f8581526003602090815260408083203380855290835292819020805460ff1916600117905551851515815287917fe71fcdac32df1877c1700e7bda2a03157e20993363a28fc35ac495cefc76e4d4910160405180910390a35050505050565b5f81815260026020526040812090600682015460ff16600481111561055d5761055d610fa9565b146105975760405162461bcd60e51b815260206004820152600a6024820152694e6f742061637469766560b01b60448201526064016103cd565b806008015442116105dd5760405162461bcd60e51b815260206004820152601060248201526f159bdd1a5b99c81b9bdd08195b99195960821b60448201526064016103cd565b5f6105f082600401548360050154610a05565b90505f6105fc82610a46565b90508061060a57600261060d565b60015b60068401805460ff1916600183600481111561062b5761062b610fa9565b0217905550600683015460405185917f34a42c4ce0a88d16ad098de6406057747139a2a3dd8dd8616ee7bbabcecb768e916106699160ff16906110ad565b60405180910390a250505050565b600480545f9182610687836113e6565b91905055905060405180610140016040528082815260200186868080601f0160208091040260200160405190810160405280939291908181526020018383808284375f92019190915250505090825250604080516020601f8701819004810282018101909252858152918101919086908690819084018382808284375f92018290525093855250503360208401525060409091019061072590610a5a565b81526020016107335f610a5a565b81526020015f815260200142815260200162093a804261075391906113fe565b81525f6020918201819052838152600282526040902082518155908201516001820190610780908261145a565b5060408201516002820190610795908261145a565b506060820151816003015f6101000a8154816001600160a01b0302191690836001600160a01b031602179055506080820151816004015560a0820151816005015560c0820151816006015f6101000a81548160ff021916908360048111156107ff576107ff610fa9565b021790555060e082015160078201556101008201516008820155610120909101516009909101555f8181526002602052604090206004015461084090610954565b5f8181526002602052604090206005015461085a90610954565b336001600160a01b0316817f7585f467599d0f008985f231af99293be388626ac16ca59505c2f8f88969cd638787604051610896929190611515565b60405180910390a3949350505050565b5f6060805f5f5f60606108b7610a65565b6108bf610a96565b604080515f80825260208201909252600f60f81b9b939a50919850469750309650945092509050565b5f6108f882604001516004610ac3565b60408051608080820183525f808352602080840182905283850191909152606092830183905283519182018452855182528086015160ff1690820152600492810192909252808401519082015261094e90610afa565b92915050565b604051631974142760e21b81526004810182905230602482015273ea30c4b8b44078bbf8a6ef5b9f1ec1626c7848d9906365d0509c906044015f604051808303815f87803b1580156109a4575f5ffd5b505af11580156109b6573d5f5f3e3d5ffd5b5050505050565b5f6109c783610b75565b6109d7576109d45f610a5a565b92505b6109e082610b75565b6109f0576109ed5f610a5a565b91505b6109fe600484846008610b7e565b9392505050565b5f610a0f83610b75565b610a1f57610a1c5f610a5a565b92505b610a2882610b75565b610a3857610a355f610a5a565b91505b6109fe600484846015610b7e565b5f5f610a5183610c1f565b15159392505050565b5f61094e825f610c6f565b6060610a917f00000000000000000000000000000000000000000000000000000000000000005f610c85565b905090565b6060610a917f00000000000000000000000000000000000000000000000000000000000000006001610c85565b8060ff168260ff1614610af6576040516367cf307160e01b815260ff8084166004830152821660248201526044016103cd565b5050565b6040516313fce3b160e11b81525f9073ea30c4b8b44078bbf8a6ef5b9f1ec1626c7848d9906327f9c76290610b359085903390600401611543565b6020604051808303815f875af1158015610b51573d5f5f3e3d5ffd5b505050506040513d601f19601f8201168201806040525081019061094e919061159a565b5f81151561094e565b5f73ea30c4b8b44078bbf8a6ef5b9f1ec1626c7848d9631888debd8684610ba58888610d2e565b604080515f815260208101918290526001600160e01b031960e087901b16909152610bd693929190602481016115b1565b6020604051808303815f875af1158015610bf2573d5f5f3e3d5ffd5b505050506040513d601f19601f82011682018060405250810190610c16919061159a565b95945050505050565b60405163f6bc7f3f60e01b8152600481018290525f9073ea30c4b8b44078bbf8a6ef5b9f1ec1626c7848d99063f6bc7f3f90602401602060405180830381865afa158015610b51573d5f5f3e3d5ffd5b5f5f610c7d84600485610d9b565b949350505050565b606060ff8314610c9f57610c9883610e40565b905061094e565b818054610cab9061124e565b80601f0160208091040260200160405190810160405280929190818152602001828054610cd79061124e565b8015610d225780601f10610cf957610100808354040283529160200191610d22565b820191905f5260205f20905b815481529060010190602001808311610d0557829003601f168201915b5050505050905061094e565b60408051600280825260608083018452925f929190602083019080368337019050509050835f1c815f81518110610d6757610d676115ff565b602002602001018181525050825f1c81600181518110610d8957610d896115ff565b60209081029190910101529392505050565b604080515f8082526020820190925273ea30c4b8b44078bbf8a6ef5b9f1ec1626c7848d990631888debd908590601a90610de1898960ff16610ddc8a610e7d565b610eb2565b6040518563ffffffff1660e01b8152600401610e0094939291906115b1565b6020604051808303815f875af1158015610e1c573d5f5f3e3d5ffd5b505050506040513d601f19601f82011682018060405250810190610c7d919061159a565b60605f610e4c83610f3d565b6040805160208082528183019092529192505f91906020820181803683375050509182525060208101929092525090565b5f5f8260030b1215610ea8576040516311ead17f60e31b8152600383900b60048201526024016103cd565b5063ffffffff1690565b604080516003808252608082019092526060915f919060208201848036833701905050905084815f81518110610eea57610eea6115ff565b6020026020010181815250508381600181518110610f0a57610f0a6115ff565b6020026020010181815250508281600281518110610f2a57610f2a6115ff565b6020908102919091010152949350505050565b5f60ff8216601f81111561094e57604051632cd44ac360e21b815260040160405180910390fd5b5f60208284031215610f74575f5ffd5b5035919050565b5f81518084528060208401602086015e5f602082860101526020601f19601f83011685010191505092915050565b634e487b7160e01b5f52602160045260245ffd5b60058110610fcd57610fcd610fa9565b9052565b8a815261014060208201525f610feb61014083018c610f7b565b8281036040840152610ffd818c610f7b565b6001600160a01b038b166060850152608084018a905260a08401899052915061102b905060c0830187610fbd565b8460e083015283610100830152826101208301529b9a5050505050505050505050565b5f5f5f60608486031215611060575f5ffd5b83359250602084013567ffffffffffffffff81111561107d575f5ffd5b84016080818703121561108e575f5ffd5b9150604084013580151581146110a2575f5ffd5b809150509250925092565b6020810161094e8284610fbd565b5f5f604083850312156110cc575f5ffd5b8235915060208301356001600160a01b03811681146110e9575f5ffd5b809150509250929050565b5f5f83601f840112611104575f5ffd5b50813567ffffffffffffffff81111561111b575f5ffd5b602083019150836020828501011115611132575f5ffd5b9250929050565b5f5f5f5f6040858703121561114c575f5ffd5b843567ffffffffffffffff811115611162575f5ffd5b61116e878288016110f4565b909550935050602085013567ffffffffffffffff81111561118d575f5ffd5b611199878288016110f4565b95989497509550505050565b5f8151808452602084019350602083015f5b828110156111d55781518652602095860195909101906001016111b7565b5093949350505050565b60ff60f81b8816815260e060208201525f6111fd60e0830189610f7b565b828103604084015261120f8189610f7b565b606084018890526001600160a01b038716608085015260a0840186905283810360c0850152905061124081856111a5565b9a9950505050505050505050565b600181811c9082168061126257607f821691505b60208210810361128057634e487b7160e01b5f52602260045260245ffd5b50919050565b634e487b7160e01b5f52604160045260245ffd5b6040516080810167ffffffffffffffff811182821017156112bd576112bd611286565b60405290565b604051601f8201601f1916810167ffffffffffffffff811182821017156112ec576112ec611286565b604052919050565b803560ff81168114611304575f5ffd5b919050565b5f60808236031215611319575f5ffd5b61132161129a565b82358152611331602084016112f4565b6020820152611342604084016112f4565b6040820152606083013567ffffffffffffffff811115611360575f5ffd5b830136601f820112611370575f5ffd5b803567ffffffffffffffff81111561138a5761138a611286565b61139d601f8201601f19166020016112c3565b8181523660208385010111156113b1575f5ffd5b816020840160208301375f9181016020019190915260608301525092915050565b634e487b7160e01b5f52601160045260245ffd5b5f600182016113f7576113f76113d2565b5060010190565b8082018082111561094e5761094e6113d2565b601f82111561145557805f5260205f20601f840160051c810160208510156114365750805b601f840160051c820191505b818110156109b6575f8155600101611442565b505050565b815167ffffffffffffffff81111561147457611474611286565b61148881611482845461124e565b84611411565b6020601f8211600181146114ba575f83156114a35750848201515b5f19600385901b1c1916600184901b1784556109b6565b5f84815260208120601f198516915b828110156114e957878501518255602094850194600190920191016114c9565b508482101561150657868401515f19600387901b60f8161c191681555b50505050600190811b01905550565b60208152816020820152818360408301375f818301604090810191909152601f909201601f19160101919050565b604081528251604082015260ff602084015116606082015260ff60408401511660808201525f6060840151608060a084015261158260c0840182610f7b565b91505060018060a01b03831660208301529392505050565b5f602082840312156115aa575f5ffd5b5051919050565b60ff851681525f602085106115c8576115c8610fa9565b846020830152608060408301526115e260808301856111a5565b82810360608401526115f481856111a5565b979650505050505050565b634e487b7160e01b5f52603260045260245ffdfea2646970667358221220f49164e4bee01466d7ecf606621f089682c2db76aa0e3d46370945bc9c48766864736f6c634300081c0033",
  "linkReferences": {},
  "deployedLinkReferences": {}
}