{
  "_format": "hh-sol-artifact-1",
  "contractName": "CipherVault",
  "sourceName": "contracts/CipherVault.sol",
  "abi": [
    {
      "inputs": [],
      "name": "ECDSAInvalidSignature",
      "type": "error"
    },
    {
      "inputs": [
        {
          "internalType": "uint256",
          "name": "length",
          "type": "uint256"
        }
      ],
      "name": "ECDSAInvalidSignatureLength",
      "type": "error"
    },
    {
      "inputs": [
        {
          "internalType": "bytes32",
          "name": "s",
          "type": "bytes32"
        }
      ],
      "name": "ECDSAInvalidSignatureS",
      "type": "error"
    },
    {
      "inputs": [
        {
          "internalType": "uint8",
          "name": "got",
          "type": "uint8"
        },
        {
          "internalType": "uint8",
          "name": "expected",
          "type": "uint8"
        }
      ],
      "name": "InvalidEncryptedInput",
      "type": "error"
    },
    {
      "inputs": [],
      "name": "InvalidShortString",
      "type": "error"
    },
    {
      "inputs": [],
      "name": "SignerNotMessageSender",
      "type": "error"
    },
    {
      "inputs": [],
      "name": "SignerNotOwner",
      "type": "error"
    },
    {
      "inputs": [
        {
          "internalType": "string",
          "name": "str",
          "type": "string"
        }
      ],
      "name": "StringTooLong",
      "type": "error"
    },
    {
      "anonymous": false,
      "inputs": [
        {
          "indexed": true,
          "internalType": "address",
          "name": "owner",
          "type": "address"
        },
        {
          "indexed": true,
          "internalType": "address",
          "name": "requester",
          "type": "address"
        },
        {
          "indexed": true,
          "internalType": "uint256",
          "name": "credentialIndex",
          "type": "uint256"
        }
      ],
      "name": "AccessLogged",
      "type": "event"
    },
    {
      "anonymous": false,
      "inputs": [
        {
          "indexed": true,
          "internalType": "address",
          "name": "owner",
          "type": "address"
        },
        {
          "indexed": true,
          "internalType": "uint256",
          "name": "index",
          "type": "uint256"
        }
      ],
      "name": "CredentialRevoked",
      "type": "event"
    },
    {
      "anonymous": false,
      "inputs": [
        {
          "indexed": true,
          "internalType": "address",
          "name": "owner",
          "type": "address"
        },
        {
          "indexed": true,
          "internalType": "uint256",
          "name": "index",
          "type": "uint256"
        },
        {
          "indexed": false,
          "internalType": "enum CipherVault.CredentialType",
          "name": "credType",
          "type": "uint8"
        },
        {
          "indexed": false,
          "internalType": "string",
          "name": "label",
          "type": "string"
        }
      ],
      "name": "CredentialStored",
      "type": "event"
    },
    {
      "anonymous": false,
      "inputs": [
        {
          "indexed": true,
          "internalType": "address",
          "name": "owner",
          "type": "address"
        },
        {
          "indexed": true,
          "internalType": "uint256",
          "name": "index",
          "type": "uint256"
        },
        {
          "indexed": false,
          "internalType": "uint32",
          "name": "newVersion",
          "type": "uint32"
        }
      ],
      "name": "CredentialUpdated",
      "type": "event"
    },
    {
      "anonymous": false,
      "inputs": [],
      "name": "EIP712DomainChanged",
      "type": "event"
    },
    {
      "inputs": [
        {
          "internalType": "address",
          "name": "",
          "type": "address"
        },
        {
          "internalType": "uint256",
          "name": "",
          "type": "uint256"
        }
      ],
      "name": "accessLogs",
      "outputs": [
        {
          "internalType": "address",
          "name": "requester",
          "type": "address"
        },
        {
          "internalType": "uint256",
          "name": "credentialIndex",
          "type": "uint256"
        },
        {
          "internalType": "uint256",
          "name": "timestamp",
          "type": "uint256"
        },
        {
          "internalType": "string",
          "name": "purpose",
          "type": "string"
        }
      ],
      "stateMutability": "view",
      "type": "function"
    },
    {
      "inputs": [
        {
          "internalType": "address",
          "name": "",
          "type": "address"
        }
      ],
      "name": "credentialCount",
      "outputs": [
        {
          "internalType": "uint256",
          "name": "",
          "type": "uint256"
        }
      ],
      "stateMutability": "view",
      "type": "function"
    },
    {
      "inputs": [
        {
          "internalType": "address",
          "name": "",
          "type": "address"
        },
        {
          "internalType": "uint256",
          "name": "",
          "type": "uint256"
        }
      ],
      "name": "credentials",
      "outputs": [
        {
          "internalType": "euint32",
          "name": "value",
          "type": "bytes32"
        },
        {
          "internalType": "enum CipherVault.CredentialType",
          "name": "credType",
          "type": "uint8"
        },
        {
          "internalType": "string",
          "name": "label",
          "type": "string"
        },
        {
          "internalType": "bool",
          "name": "active",
          "type": "bool"
        },
        {
          "internalType": "uint256",
          "name": "createdAt",
          "type": "uint256"
        },
        {
          "internalType": "uint256",
          "name": "updatedAt",
          "type": "uint256"
        },
        {
          "internalType": "uint32",
          "name": "version",
          "type": "uint32"
        }
      ],
      "stateMutability": "view",
      "type": "function"
    },
    {
      "inputs": [],
      "name": "eip712Domain",
      "outputs": [
        {
          "internalType": "bytes1",
          "name": "fields",
          "type": "bytes1"
        },
        {
          "internalType": "string",
          "name": "name",
          "type": "string"
        },
        {
          "internalType": "string",
          "name": "version",
          "type": "string"
        },
        {
          "internalType": "uint256",
          "name": "chainId",
          "type": "uint256"
        },
        {
          "internalType": "address",
          "name": "verifyingContract",
          "type": "address"
        },
        {
          "internalType": "bytes32",
          "name": "salt",
          "type": "bytes32"
        },
        {
          "internalType": "uint256[]",
          "name": "extensions",
          "type": "uint256[]"
        }
      ],
      "stateMutability": "view",
      "type": "function"
    },
    {
      "inputs": [
        {
          "internalType": "address",
          "name": "owner",
          "type": "address"
        },
        {
          "internalType": "uint256",
          "name": "logIndex",
          "type": "uint256"
        }
      ],
      "name": "getAccessLog",
      "outputs": [
        {
          "internalType": "address",
          "name": "requester",
          "type": "address"
        },
        {
          "internalType": "uint256",
          "name": "credentialIndex",
          "type": "uint256"
        },
        {
          "internalType": "uint256",
          "name": "timestamp",
          "type": "uint256"
        },
        {
          "internalType": "string",
          "name": "purpose",
          "type": "string"
        }
      ],
      "stateMutability": "view",
      "type": "function"
    },
    {
      "inputs": [
        {
          "internalType": "address",
          "name": "owner",
          "type": "address"
        }
      ],
      "name": "getAccessLogCount",
      "outputs": [
        {
          "internalType": "uint256",
          "name": "",
          "type": "uint256"
        }
      ],
      "stateMutability": "view",
      "type": "function"
    },
    {
      "inputs": [
        {
          "internalType": "address",
          "name": "owner",
          "type": "address"
        },
        {
          "internalType": "uint256",
          "name": "index",
          "type": "uint256"
        }
      ],
      "name": "getCredentialMeta",
      "outputs": [
        {
          "internalType": "enum CipherVault.CredentialType",
          "name": "credType",
          "type": "uint8"
        },
        {
          "internalType": "string",
          "name": "label",
          "type": "string"
        },
        {
          "internalType": "bool",
          "name": "active",
          "type": "bool"
        },
        {
          "internalType": "uint256",
          "name": "createdAt",
          "type": "uint256"
        },
        {
          "internalType": "uint256",
          "name": "updatedAt",
          "type": "uint256"
        },
        {
          "internalType": "uint32",
          "name": "version",
          "type": "uint32"
        }
      ],
      "stateMutability": "view",
      "type": "function"
    },
    {
      "inputs": [],
      "name": "getVaultOwnerCount",
      "outputs": [
        {
          "internalType": "uint256",
          "name": "",
          "type": "uint256"
        }
      ],
      "stateMutability": "view",
      "type": "function"
    },
    {
      "inputs": [
        {
          "internalType": "address",
          "name": "owner",
          "type": "address"
        },
        {
          "internalType": "uint256",
          "name": "credentialIndex",
          "type": "uint256"
        },
        {
          "internalType": "string",
          "name": "purpose",
          "type": "string"
        }
      ],
      "name": "logAccess",
      "outputs": [],
      "stateMutability": "nonpayable",
      "type": "function"
    },
    {
      "inputs": [
        {
          "internalType": "address",
          "name": "",
          "type": "address"
        }
      ],
      "name": "registered",
      "outputs": [
        {
          "internalType": "bool",
          "name": "",
          "type": "bool"
        }
      ],
      "stateMutability": "view",
      "type": "function"
    },
    {
      "inputs": [
        {
          "internalType": "uint256",
          "name": "index",
          "type": "uint256"
        }
      ],
      "name": "revokeCredential",
      "outputs": [],
      "stateMutability": "nonpayable",
      "type": "function"
    },
    {
      "inputs": [
        {
          "internalType": "uint256",
          "name": "index",
          "type": "uint256"
        },
        {
          "components": [
            {
              "internalType": "bytes32",
              "name": "publicKey",
              "type": "bytes32"
            },
            {
              "internalType": "bytes",
              "name": "signature",
              "type": "bytes"
            }
          ],
          "internalType": "struct Permission",
          "name": "permission",
          "type": "tuple"
        }
      ],
      "name": "sealCredential",
      "outputs": [
        {
          "internalType": "uint32",
          "name": "",
          "type": "uint32"
        }
      ],
      "stateMutability": "view",
      "type": "function"
    },
    {
      "inputs": [
        {
          "components": [
            {
              "internalType": "uint256",
              "name": "ctHash",
              "type": "uint256"
            },
            {
              "internalType": "uint8",
              "name": "securityZone",
              "type": "uint8"
            },
            {
              "internalType": "uint8",
              "name": "utype",
              "type": "uint8"
            },
            {
              "internalType": "bytes",
              "name": "signature",
              "type": "bytes"
            }
          ],
          "internalType": "struct InEuint32",
          "name": "inValue",
          "type": "tuple"
        },
        {
          "internalType": "enum CipherVault.CredentialType",
          "name": "credType",
          "type": "uint8"
        },
        {
          "internalType": "string",
          "name": "label",
          "type": "string"
        }
      ],
      "name": "storeCredential",
      "outputs": [
        {
          "internalType": "uint256",
          "name": "index",
          "type": "uint256"
        }
      ],
      "stateMutability": "nonpayable",
      "type": "function"
    },
    {
      "inputs": [
        {
          "internalType": "uint256",
          "name": "index",
          "type": "uint256"
        },
        {
          "components": [
            {
              "internalType": "uint256",
              "name": "ctHash",
              "type": "uint256"
            },
            {
              "internalType": "uint8",
              "name": "securityZone",
              "type": "uint8"
            },
            {
              "internalType": "uint8",
              "name": "utype",
              "type": "uint8"
            },
            {
              "internalType": "bytes",
              "name": "signature",
              "type": "bytes"
            }
          ],
          "internalType": "struct InEuint32",
          "name": "inNewValue",
          "type": "tuple"
        }
      ],
      "name": "updateCredential",
      "outputs": [],
      "stateMutability": "nonpayable",
      "type": "function"
    },
    {
      "inputs": [
        {
          "internalType": "uint256",
          "name": "",
          "type": "uint256"
        }
      ],
      "name": "vaultOwners",
      "outputs": [
        {
          "internalType": "address",
          "name": "",
          "type": "address"
        }
      ],
      "stateMutability": "view",
      "type": "function"
    }
  ],
  "bytecode": "0x610160604052348015610010575f5ffd5b506040805180820182526011815270233432b734bc102832b936b4b9b9b4b7b760791b602080830191909152825180840190935260038352620312e360ec1b908301529061005e825f610107565b6101205261006d816001610107565b61014052815160208084019190912060e052815190820120610100524660a0526100f960e05161010051604080517f8b73c3c69bb8fe3d512ecc4cf759cc79239f7b179b0ffacaa9a75d522b39400f60208201529081019290925260608201524660808201523060a08201525f9060c00160405160208183030381529060405280519060200120905090565b60805250503060c052610329565b5f6020835110156101225761011b83610139565b9050610133565b8161012d8482610217565b5060ff90505b92915050565b5f5f829050601f8151111561016c578260405163305a27a960e01b815260040161016391906102d1565b60405180910390fd5b805161017782610306565b179392505050565b634e487b7160e01b5f52604160045260245ffd5b600181811c908216806101a757607f821691505b6020821081036101c557634e487b7160e01b5f52602260045260245ffd5b50919050565b601f82111561021257805f5260205f20601f840160051c810160208510156101f05750805b601f840160051c820191505b8181101561020f575f81556001016101fc565b50505b505050565b81516001600160401b038111156102305761023061017f565b6102448161023e8454610193565b846101cb565b6020601f821160018114610276575f831561025f5750848201515b5f19600385901b1c1916600184901b17845561020f565b5f84815260208120601f198516915b828110156102a55787850151825560209485019460019092019101610285565b50848210156102c257868401515f19600387901b60f8161c191681555b50505050600190811b01905550565b602081525f82518060208401528060208501604085015e5f604082850101526040601f19601f83011684010191505092915050565b805160208083015191908110156101c5575f1960209190910360031b1b16919050565b60805160a05160c05160e051610100516101205161014051611c6e61037a5f395f610dd301525f610da201525f61119f01525f61117701525f6110d201525f6110fc01525f6111260152611c6e5ff3fe608060405234801561000f575f5ffd5b50600436106100f0575f3560e01c8063a389f10211610093578063c111a85d11610063578063c111a85d1461024f578063d70e3ed314610262578063f83eb2e21461028d578063f9647fce146102b2575f5ffd5b8063a389f102146101cf578063b2dd5c07146101e2578063b339a00d14610214578063b40aea8814610227575f5ffd5b80635db39490116100ce5780635db394901461014a57806369989ffb1461017257806384b0196e146101915780638d4b31b1146101ac575f5ffd5b806303cb278a146100f45780631b87278d146101235780631d4a403014610138575b5f5ffd5b610107610102366004611487565b6102c5565b60405161011a9796959493929190611511565b60405180910390f35b610136610131366004611562565b61039d565b005b6006545b60405190815260200161011a565b61013c610158366004611579565b6001600160a01b03165f9081526004602052604090205490565b61013c610180366004611579565b60036020525f908152604090205481565b610199610422565b60405161011a9796959493929190611599565b6101bf6101ba366004611487565b610464565b60405161011a949392919061162f565b61013c6101dd3660046116b5565b61053a565b6102046101f0366004611579565b60056020525f908152604090205460ff1681565b604051901515815260200161011a565b61013661022236600461172f565b6107a8565b61023a610235366004611809565b6108cc565b60405163ffffffff909116815260200161011a565b6101bf61025d366004611487565b610a23565b610275610270366004611562565b610b23565b6040516001600160a01b03909116815260200161011a565b6102a061029b366004611487565b610b4b565b60405161011a969594939291906118a6565b6101366102c03660046118f0565b610c4b565b600260208181525f93845260408085209091529183529120805460018201549282018054919360ff1692916102f990611933565b80601f016020809104026020016040519081016040528092919081815260200182805461032590611933565b80156103705780601f1061034757610100808354040283529160200191610370565b820191905f5260205f20905b81548152906001019060200180831161035357829003601f168201915b50505050600383015460048401546005850154600690950154939460ff9092169390925063ffffffff1687565b335f9081526003602052604090205481106103d35760405162461bcd60e51b81526004016103ca90611965565b60405180910390fd5b335f818152600260209081526040808320858452909152808220600301805460ff19169055518392917ff2fcadf579f414e0330984b542cd6af76f79cc0213bfd8d53adf88364f1d262191a350565b5f6060805f5f5f6060610433610d9b565b61043b610dcc565b604080515f80825260208201909252600f60f81b9b939a50919850469750309650945092509050565b6004602052815f5260405f20818154811061047d575f80fd5b5f91825260209091206004909102018054600182015460028301546003840180546001600160a01b03909416965091945092916104b990611933565b80601f01602080910402602001604051908101604052809291908181526020018280546104e590611933565b80156105305780601f1061050757610100808354040283529160200191610530565b820191905f5260205f20905b81548152906001019060200180831161051357829003601f168201915b5050505050905084565b335f9081526005602052604081205460ff166105ac57335f818152600560205260408120805460ff191660019081179091556006805491820181559091527ff652222313e28459528d920b65115c16c04f3efc82aaedc97be59f3f377c0d3f0180546001600160a01b03191690911790555b50335f908152600360205260409081902054815160e0810190925290806105da6105d58861199c565b610df9565b81526020018560038111156105f1576105f16114af565b815260200184848080601f0160208091040260200160405190810160405280939291908181526020018383808284375f920182905250938552505060016020808501829052426040808701829052606087019190915260809095018290523384526002815284842087855281529390922084518155928401518383018054919390925060ff199091169083600381111561068d5761068d6114af565b0217905550604082015160028201906106a69082611a70565b50606082015160038201805460ff19169115159190911790556080820151600482015560a0820151600582015560c0909101516006909101805463ffffffff191663ffffffff909216919091179055335f90815260026020908152604080832084845290915290205461071890610e65565b335f90815260026020908152604080832084845290915290205461073b90610ecf565b335f90815260036020526040812080549161075583611b3e565b919050555080336001600160a01b03167f89a134e01919d9141c2ad1728dae7de2068f3cc852e0660f0c83ecd1bbda3b5b86868660405161079893929190611b56565b60405180910390a3949350505050565b60045f856001600160a01b03166001600160a01b031681526020019081526020015f206040518060800160405280336001600160a01b0316815260200185815260200142815260200184848080601f0160208091040260200160405190810160405280939291908181526020018383808284375f920182905250939094525050835460018082018655948252602091829020845160049092020180546001600160a01b0319166001600160a01b03909216919091178155908301519381019390935550604081015160028301556060810151909190600382019061088c9082611a70565b505060405184915033906001600160a01b038716907fc2dd7636d54109dc5f014310c55e34856ddba266b8ec98573011602a8c300a63905f90a450505050565b5f815f61092c7f6bdaeb2d29561f159c7ef98b16b27015fb2aeb87209c7ee656226d912f59927d835f0151604051602001610911929190918252602082015260400190565b60405160208183030381529060405280519060200120610f0d565b90505f61093d828460200151610f39565b90506001600160a01b038116331461096857604051633093a27760e01b815260040160405180910390fd5b335f9081526003602052604090205486106109955760405162461bcd60e51b81526004016103ca90611965565b335f90815260026020908152604080832089845290915290206003015460ff166109f65760405162461bcd60e51b815260206004820152601260248201527110dc9959195b9d1a585b081c995d9bdad95960721b60448201526064016103ca565b335f908152600260209081526040808320898452909152902054610a1990610f61565b9695505050505050565b6001600160a01b0382165f908152600460205260408120805482918291606091839187908110610a5557610a55611b92565b905f5260205f2090600402019050805f015f9054906101000a90046001600160a01b03168160010154826002015483600301808054610a9390611933565b80601f0160208091040260200160405190810160405280929190818152602001828054610abf90611933565b8015610b0a5780601f10610ae157610100808354040283529160200191610b0a565b820191905f5260205f20905b815481529060010190602001808311610aed57829003601f168201915b5050505050905094509450945094505092959194509250565b60068181548110610b32575f80fd5b5f918252602090912001546001600160a01b0316905081565b6001600160a01b0382165f90815260026020818152604080842085855290915282206001810154600382015460048301546005840154600685015495850180546060978997889788978897929660ff9283169695919092169363ffffffff16908590610bb690611933565b80601f0160208091040260200160405190810160405280929190818152602001828054610be290611933565b8015610c2d5780601f10610c0457610100808354040283529160200191610c2d565b820191905f5260205f20905b815481529060010190602001808311610c1057829003601f168201915b50505050509450965096509650965096509650509295509295509295565b335f908152600360205260409020548210610c785760405162461bcd60e51b81526004016103ca90611965565b335f90815260026020908152604080832085845290915290206003015460ff16610cd95760405162461bcd60e51b815260206004820152601260248201527110dc9959195b9d1a585b081c995d9bdad95960721b60448201526064016103ca565b335f9081526002602090815260408083208584529091529020610cfe6105d58361199c565b815542600582015560068101805463ffffffff16905f610d1d83611ba6565b91906101000a81548163ffffffff021916908363ffffffff16021790555050610d48815f0154610e65565b8054610d5390610ecf565b600681015460405163ffffffff9091168152839033907f95023e169415bb14e555dfe554af29b376f147915db189370d01bce4512dce749060200160405180910390a3505050565b6060610dc77f00000000000000000000000000000000000000000000000000000000000000005f610f6b565b905090565b6060610dc77f00000000000000000000000000000000000000000000000000000000000000006001610f6b565b5f610e0982604001516004611014565b60408051608080820183525f808352602080840182905283850191909152606092830183905283519182018452855182528086015160ff16908201526004928101929092528084015190820152610e5f9061104b565b92915050565b604051631974142760e21b81526004810182905230602482015273ea30c4b8b44078bbf8a6ef5b9f1ec1626c7848d9906365d0509c906044015b5f604051808303815f87803b158015610eb6575f5ffd5b505af1158015610ec8573d5f5f3e3d5ffd5b5050505050565b604051631974142760e21b81526004810182905233602482015273ea30c4b8b44078bbf8a6ef5b9f1ec1626c7848d9906365d0509c90604401610e9f565b5f610e5f610f196110c6565b8360405161190160f01b8152600281019290925260228201526042902090565b5f5f5f5f610f4786866111ef565b925092509250610f578282611238565b5090949350505050565b5f610e5f826112f0565b606060ff8314610f8557610f7e83611340565b9050610e5f565b818054610f9190611933565b80601f0160208091040260200160405190810160405280929190818152602001828054610fbd90611933565b80156110085780601f10610fdf57610100808354040283529160200191611008565b820191905f5260205f20905b815481529060010190602001808311610feb57829003601f168201915b50505050509050610e5f565b8060ff168260ff1614611047576040516367cf307160e01b815260ff8084166004830152821660248201526044016103ca565b5050565b6040516313fce3b160e11b81525f9073ea30c4b8b44078bbf8a6ef5b9f1ec1626c7848d9906327f9c762906110869085903390600401611bca565b6020604051808303815f875af11580156110a2573d5f5f3e3d5ffd5b505050506040513d601f19601f82011682018060405250810190610e5f9190611c21565b5f306001600160a01b037f00000000000000000000000000000000000000000000000000000000000000001614801561111e57507f000000000000000000000000000000000000000000000000000000000000000046145b1561114857507f000000000000000000000000000000000000000000000000000000000000000090565b610dc7604080517f8b73c3c69bb8fe3d512ecc4cf759cc79239f7b179b0ffacaa9a75d522b39400f60208201527f0000000000000000000000000000000000000000000000000000000000000000918101919091527f000000000000000000000000000000000000000000000000000000000000000060608201524660808201523060a08201525f9060c00160405160208183030381529060405280519060200120905090565b5f5f5f8351604103611226576020840151604085015160608601515f1a6112188882858561137d565b955095509550505050611231565b505081515f91506002905b9250925092565b5f82600381111561124b5761124b6114af565b03611254575050565b6001826003811115611268576112686114af565b036112865760405163f645eedf60e01b815260040160405180910390fd5b600282600381111561129a5761129a6114af565b036112bb5760405163fce698f760e01b8152600481018290526024016103ca565b60038260038111156112cf576112cf6114af565b03611047576040516335e2f38360e21b8152600481018290526024016103ca565b60405163f6bc7f3f60e01b8152600481018290525f9073ea30c4b8b44078bbf8a6ef5b9f1ec1626c7848d99063f6bc7f3f90602401602060405180830381865afa1580156110a2573d5f5f3e3d5ffd5b60605f61134c83611445565b6040805160208082528183019092529192505f91906020820181803683375050509182525060208101929092525090565b5f80807f7fffffffffffffffffffffffffffffff5d576e7357a4501ddfe92f46681b20a08411156113b657505f9150600390508261143b565b604080515f808252602082018084528a905260ff891692820192909252606081018790526080810186905260019060a0016020604051602081039080840390855afa158015611407573d5f5f3e3d5ffd5b5050604051601f1901519150506001600160a01b03811661143257505f92506001915082905061143b565b92505f91508190505b9450945094915050565b5f60ff8216601f811115610e5f57604051632cd44ac360e21b815260040160405180910390fd5b80356001600160a01b0381168114611482575f5ffd5b919050565b5f5f60408385031215611498575f5ffd5b6114a18361146c565b946020939093013593505050565b634e487b7160e01b5f52602160045260245ffd5b600481106114df57634e487b7160e01b5f52602160045260245ffd5b9052565b5f81518084528060208401602086015e5f602082860101526020601f19601f83011685010191505092915050565b87815261152160208201886114c3565b60e060408201525f61153660e08301886114e3565b951515606083015250608081019390935260a083019190915263ffffffff1660c0909101529392505050565b5f60208284031215611572575f5ffd5b5035919050565b5f60208284031215611589575f5ffd5b6115928261146c565b9392505050565b60ff60f81b8816815260e060208201525f6115b760e08301896114e3565b82810360408401526115c981896114e3565b606084018890526001600160a01b038716608085015260a0840186905283810360c0850152845180825260208087019350909101905f5b8181101561161e578351835260209384019390920191600101611600565b50909b9a5050505050505050505050565b60018060a01b0385168152836020820152826040820152608060608201525f610a1960808301846114e3565b5f6080828403121561166b575f5ffd5b50919050565b5f5f83601f840112611681575f5ffd5b5081356001600160401b03811115611697575f5ffd5b6020830191508360208285010111156116ae575f5ffd5b9250929050565b5f5f5f5f606085870312156116c8575f5ffd5b84356001600160401b038111156116dd575f5ffd5b6116e98782880161165b565b9450506020850135600481106116fd575f5ffd5b925060408501356001600160401b03811115611717575f5ffd5b61172387828801611671565b95989497509550505050565b5f5f5f5f60608587031215611742575f5ffd5b61174b8561146c565b93506020850135925060408501356001600160401b03811115611717575f5ffd5b634e487b7160e01b5f52604160045260245ffd5b5f82601f83011261178f575f5ffd5b81356001600160401b038111156117a8576117a861176c565b604051601f8201601f19908116603f011681016001600160401b03811182821017156117d6576117d661176c565b6040528181528382016020018510156117ed575f5ffd5b816020850160208301375f918101602001919091529392505050565b5f5f6040838503121561181a575f5ffd5b8235915060208301356001600160401b03811115611836575f5ffd5b830160408186031215611847575f5ffd5b604080519081016001600160401b03811182821017156118695761186961176c565b6040528135815260208201356001600160401b03811115611888575f5ffd5b61189487828501611780565b60208301525080925050509250929050565b6118b081886114c3565b60c060208201525f6118c560c08301886114e3565b9515156040830152506060810193909352608083019190915263ffffffff1660a09091015292915050565b5f5f60408385031215611901575f5ffd5b8235915060208301356001600160401b0381111561191d575f5ffd5b6119298582860161165b565b9150509250929050565b600181811c9082168061194757607f821691505b60208210810361166b57634e487b7160e01b5f52602260045260245ffd5b6020808252600d908201526c092dcecc2d8d2c840d2dcc8caf609b1b604082015260600190565b803560ff81168114611482575f5ffd5b5f608082360312156119ac575f5ffd5b604051608081016001600160401b03811182821017156119ce576119ce61176c565b604052823581526119e16020840161198c565b60208201526119f26040840161198c565b604082015260608301356001600160401b03811115611a0f575f5ffd5b611a1b36828601611780565b60608301525092915050565b601f821115611a6b57805f5260205f20601f840160051c81016020851015611a4c5750805b601f840160051c820191505b81811015610ec8575f8155600101611a58565b505050565b81516001600160401b03811115611a8957611a8961176c565b611a9d81611a978454611933565b84611a27565b6020601f821160018114611acf575f8315611ab85750848201515b5f19600385901b1c1916600184901b178455610ec8565b5f84815260208120601f198516915b82811015611afe5787850151825560209485019460019092019101611ade565b5084821015611b1b57868401515f19600387901b60f8161c191681555b50505050600190811b01905550565b634e487b7160e01b5f52601160045260245ffd5b5f60018201611b4f57611b4f611b2a565b5060010190565b611b6081856114c3565b60406020820152816040820152818360608301375f818301606090810191909152601f909201601f1916010192915050565b634e487b7160e01b5f52603260045260245ffd5b5f63ffffffff821663ffffffff8103611bc157611bc1611b2a565b60010192915050565b604081528251604082015260ff602084015116606082015260ff60408401511660808201525f6060840151608060a0840152611c0960c08401826114e3565b91505060018060a01b03831660208301529392505050565b5f60208284031215611c31575f5ffd5b505191905056fea2646970667358221220f1f7b8b22eba6f7a22b77a4b3738d98a2ff39006cc147541b291bb101532ca9e64736f6c634300081c0033",
  "linkReferences": {},
  "deployedLinkReferences": {}
}